:020000040800F2
:10200000C02F002085210008CF480008712D00084E
:10201000CD480008472A0008656F0008000000004E
:102020000000000000000000000000006D4E0008ED
:10203000492A0008000000006B4E0008714E00089D
:102040009F2100089F2100089F2100089F21000870
:102050009F2100089F2100089F2100089F21000860
:102060009F2100089F2100089F2100089F21000850
:102070009F2100089F2100089F2100089F21000840
:102080009F2100089F2100089F2100089F21000830
:102090009F2100089F2100089F2100089F21000820
:1020A000C96300089F2100089F2100089F210008A4
:1020B0009F2100089F2100089F2100089F21000800
:1020C0009F2100089F2100089F2100089F210008F0
:1020D0009F210008056F00089F2100089F2100082C
:1020E0009F2100089F2100089F2100080000000098
:1020F00000000000000000000000000000000000E0
:10210000000000009F210008F963000800000000A3
:102110009F2100089F21000800000000000000002F
:102120009F2100089F2100089F2100089F2100088F
:10213000000000000000000000000000000000009F
:102140000000000000000000000000009F210008C7
:1021500000000000000000009F2100089F210008EF
:102160000000000000000000000000009F210008A7
:10217000DFF80CD000F0A0F9004800476D89000896
:10218000C02F00200648804706480047FEE7FEE7CC
:10219000FEE7FEE7FEE7FEE7FEE7FEE7FEE7FEE717
:1021A00055630008712100082DE9FE4F804681EA41
:1021B0000300C00F0C46009021F0004123F00045C1
:1021C000B8EB0200A94105D24046214690461C4684
:1021D0000B46024623F00040104347D0270DC7F3BB
:1021E0000A00C3F30A510290401A019040286BDAAA
:1021F000C3F3130040F4801B0098924620B10023E3
:10220000D2EB030A63EB0B0B01985946C0F1400275
:10221000504600F069F906460D4650465946019A67
:1022200000F081F910EB08006141002487EA1152A7
:1022300084EAE7731A4340D0009A62B3019A012AF4
:102240004FEA075215DC001B61EB02014FF0004220
:1022500002EA0752CDE90042001C41F580113246E6
:102260002B4600F081F903B0BDE8F08F40462146CF
:10227000F9E7001B61EB0201001C41F58013001817
:102280005B412018A2F5001747EB030140EAD57027
:10229000B6196D4111E06D084FEA360645EAC07582
:1022A0004FEA0752001B61EB0201001C41F580114F
:1022B00049084FEA30000019514132462B4603B01D
:1022C000BDE8F04F00F041B9009801224000002322
:1022D000D0EB020263EBE073009821464FEAE07412
:1022E000B8EB000061EB0401E9E783F000435BE732
:1022F00081F0004158E72DE9FE4F81EA030404F024
:10230000004421F0004100944FF0000B23F0004303
:1023100050EA01045ED052EA03045BD0C3F30A54CE
:10232000C1F30A552C44A4F2F3340194A0FB0254E7
:10233000C1F3130141F48011C3F3130343F4801379
:1023400001FB024400FB034E840A970A44EA8154CD
:1023500047EA8357A4FB076802958D0A05FB0785AA
:102360004FEA932C04FB0C542705029D4FEA0658B4
:1023700047EA1637B5EB08056EEB070C870E920E91
:1023800047EA811742EA8312A7FB0201B6EB0B0171
:1023900064EB00042B0D43EA0C335E1844EB1C5035
:1023A000DA465146E7FB0201C5F313044FEA0B334B
:1023B00043EA14534FEA0432019C43EA0603A4F1B2
:1023C0000C040294009CCDE900B400F0CDF803B0F9
:1023D000BDE8F08F00200146F9E72DE9F04D81EAD4
:1023E000030404F0004B21F0004514464FF0000AAE
:1023F00023F0004150EA050220D054EA01021DD02A
:10240000C5F30A570246C5F31303C1F31300C1F322
:102410000A5640F4801543F48013A7EB0608101BFE
:10242000D64608F2FD3873EB050002D308F1010827
:1024300001E092185B41B8F1000F03DA0020014679
:10244000BDE8F08D00204FF48011064684460EE072
:10245000171B73EB050705D3121B63EB050306433C
:102460004CEA010C49084FEA300092185B4150EAEF
:102470000107EDD152EA030012D082EA040083EA98
:102480000501084305D0101BAB4106D201220023F1
:1024900006E000224FF0004302E06FF0010253100B
:1024A0001AEB06004CEB085110EB0A0041EB0B0154
:1024B000BDE8F04D00F049B81CB509480090094846
:1024C00001900546009C06E0E06840F0010394E8B6
:1024D000070098471034AC42F6D3FFF74DFE0000DA
:1024E00050D0010870D00108202A04DB203A00FAFD
:1024F00002F1002070479140C2F1200320FA03F35B
:10250000194390407047202A04DB203A21FA02F058
:102510000021704721FA02F3D040C2F1200291401D
:10252000084319467047202A06DBCB17203A41FAA8
:1025300002F043EAE07306E041FA02F3D040C2F150
:102540002002914008431946704710B5141E73F1DC
:10255000000408DA401C41F1000192185B411A4363
:1025600001D120F0010010BD2DE9F04D92469B46AF
:1025700011B1B1FA81F202E0B0FA80F22032904655
:10258000FFF7B2FF04460F4640EA0A0041EA0B019A
:1025900053465A46084313D0114653EA010019D056
:1025A000C8F140025046FFF7AEFF05460E465046C2
:1025B00059464246FFF798FF084305D0012004E042
:1025C00020463946BDE8F08D0020054346EAE07616
:1025D0002C4337430A986305E40AA0EB0800002265
:1025E000FD0A44EA47540A3002D500200146E9E7D3
:1025F000010510196941DDE9084500196941BDE887
:10260000F04DA2E70EB540F2334102910021CDE931
:1026100000110A460B46FFF7A7FF03B000BD70B5D7
:10262000C1F30A5201F000450024C1F3130140F246
:10263000FF3341F480119A4201DA002070BD40F26C
:1026400033439A42A2F2334203DC5242FFF75BFF6C
:1026500000E090402C43F1D0404270BDD2B201E086
:1026600000F8012B491EFBD270470022F6E710B597
:1026700013460A4604461946FFF7F0FF204610BDF0
:10268000F0B480EA0102D40F4200B2EB410F02D253
:102690000246084611464A0042D0C30DDDB2C1F3DE
:1026A000C752AD1A202D35DAC1F3160141F40002EC
:1026B00004B15242C5F1200602FA06F12A41104443
:1026C000B3EBD05F23D0C4B1012DA0EBC35009DC24
:1026D000F0BC4FF0004202EAC352DBB200F500004A
:1026E00000F083B9400000F1807000EBC350A0F10E
:1026F000807040EAD170490009E0490841EAC071A0
:10270000A0EBC35000F50000400800EBC350F0BC44
:1027100000F062B96142012202EB4101001BF6E7C1
:10272000F0BC704781F00041AAE780F00040A7E7C5
:1027300080EA010210B502F00043400022D04A00B6
:102740001FD0010E01EB1261C0F35600C2F3560216
:1027500040F4000042F40002A0FB022000047F3994
:10276000140400D0401C50EA124001D44000491E1D
:10277000C2B20C0604EBD010401C4008802A02D0E4
:1027800003E0002010BD20F00100002900DA002045
:10279000184310BD30B480EA010202F0004530F069
:1027A000004221F0004013D090B1C30DD40DC2F30C
:1027B0001601C0F31600E41A41F4000140F40002CF
:1027C0007D34914201D3641C00E04900002C02DA00
:1027D00030BC002070474FF400000023914201D329
:1027E000891A034340084FEA4101F7D151B19142A0
:1027F00002D14FF0004105E002D24FF0010101E0AB
:102800006FF0010103EBC450284430BC00F0E4B881
:10281000002801DBC0F10040002901DBC1F10041CB
:10282000814201D80120704700207047002801DB59
:10283000C0F10040002901DBC1F10041814201D219
:102840000120704700207047002801DBC0F10040E4
:10285000002901DBC1F10041814201D30120704711
:1028600000207047002801DBC0F10040002901DB97
:10287000C1F10041814201D9012070470020704719
:10288000002801DBC0F10040002901DBC1F100415B
:10289000814201D1012070470020704730B5041EED
:1028A00071F1000404DB4FF00044404264EB01018D
:1028B000141E73F1000405DB1C464FF00043524226
:1028C00063EB0403801A994101D2012030BD00203E
:1028D00030BDC10F80EAE0700844CA07962300218A
:1028E00000F083B896230022114600F07EB800F075
:1028F000004220F00040C10DC0F3160040F400007B
:102900007F2901DA00207047962903DCC1F1960186
:10291000C84001E096398840002AF4D04042704710
:1029200020F00040C10DC0F3160040F400007F29E4
:1029300001DA00207047962903DCC1F19601C840F6
:102940007047963988407047C1F30A5210B5C1F3F9
:10295000130140F2FF3341F480119A4201DA002062
:1029600010BD40F233439A42A2F2334203DC52429A
:10297000FFF7C9FD10BD904010BD00F0004230F0DF
:1029800000400AD0C10D01F56071C0F3160042EAA3
:102990000151C208400711437047002001467047AB
:1029A00001F0004330B421F0004150EA010206D0AA
:1029B0000A0DA2F56072C1F31301002A02DC30BCDB
:1029C00000207047440F44EAC104C100E01830BC45
:1029D00000EBC250AFF300800029A8BF7047401C35
:1029E000490008BF20F00100704710B4B0FA80FC25
:1029F00000FA0CF050EA010404BF10BC704749B162
:102A0000CCF1200421FA04F411FA0CF118BF0121D1
:102A100021430843A3EB0C01CB1D4FEA00614FEAB1
:102A2000102042BF002010BC704700EBC350104480
:102A30000029A4BF10BC7047401C490008BF20F00B
:102A4000010010BC7047FEE7704700002DE9F84F09
:102A500041F6A309622A88460546DFF890A09B4606
:102A6000CDF8009028BF6222052A98BF0522C2F146
:102A70006400A62148436421424680B2B0FBF1F7CE
:102A80002846532107F153063346D0470A9831466A
:102A90000F220F230090681E84B2204603F0EEFE42
:102AA0006137284642464FF48073CDF800B039466E
:102AB000D047204653212A463346CDF80090D047D0
:102AC000204639462A4602F0C1F908F10100532197
:102AD0003346CDF8009084B240462246D047404667
:102AE0003946224602F0B2F9BDE8F88F132F0008EC
:102AF000438E4FF6FF7293421CBF5A1C428670B53C
:102B0000CB1C0021062B24D8DFE803F00423142378
:102B10000823200002F035F804211AE0038C4186D6
:102B20009A4238BF012180F834104FF0010138BFBC
:102B300009210EE0038C41869A4238BF012180F8BA
:102B400034104FF0020138BF0A2102E002F019F8F8
:102B50000321024612F8305F12F8093C12F8036CA8
:102B6000DCB202F8033C84F001033343B3FA83F38D
:102B70005B094DB1002B5ED0002280F83020C28569
:102B8000826280F82C2056E0458D6DB1013D45856F
:102B90002D0401D0002508E090F82C50012D03D120
:102BA000002101F0EEFF05210125BCB1002B42D030
:102BB000024632F8283F32F8104CA34239D3448BF6
:102BC000A3422FD290F82C3085F00104013B18BFAE
:102BD000012323432DD1838B43852AE0038D048B6E
:102BE000013303859BB2A3420AD12DB990F82C4042
:102BF000012C01D1062101E000F12C020124147006
:102C0000428B934217D3C38DC28B01339CB2B4FB6A
:102C1000F2F505FB1242002A18BF1A46C28508BF0A
:102C2000082108E0002180F83010C1851160117181
:102C3000072100201080084670BD2DE9F04701688B
:102C400082888B68816886898D680469818AA46816
:102C500005EA0607BD1B04EA010CB5FA85F5ACEBE5
:102C600001044FEA551E90F82450B4FA84F4640924
:102C700080F8264080F8274003EA0204A31AB3FA3A
:102C800083F34FEA531A837D1BB355452ED0B7EB20
:102C9000060918BF4FF0010990F82580B8F101032B
:102CA00018BF0123BD1BB5FA85F56D091D4394427C
:102CB0001FD165B1B8F1000F08BFB7423DD0A8EBF6
:102CC0000E02B2FA82F2520912EA090F3DD0012532
:102CD0001EE055450AD04FF0FF35B74280F825E099
:102CE00080F824A008BF0125944217D102200025B6
:102CF0001DE065B1B8F1000F08BFB74221D0A8EBC5
:102D00000E02B2FA82F2520912EA090F27D0FF2509
:102D10004FF0000E80F825E080F824A0EAB26FF0B2
:102D20000200012A08BF0320002A08BF02208C45A8
:102D300018BF054668B2BDE8F087FF254FF0010EC9
:102D4000E8E74FF0010E0125E4E787EA060288EA8A
:102D50000E031A43B2FA82F252095542DAE787EAC1
:102D6000060288EA0E031A43B2FA82F25509D1E745
:102D7000FEE700002DE9F84FDFF88CB007462A2067
:102D8000984692468946D8477C4C4FF40045380A0D
:102D90007B494FF480666560C4F8FC03F8B20E60AE
:102DA000C4F80068256065600F46C4F8FC034FEA6C
:102DB0001A200E6001F03BFE5FFA8AF00E6001F00F
:102DC00036FE2B200E60C4F800682560D8474FEA15
:102DD000192065605946C4F8FC035FFA89F03E602B
:102DE00001F025FE4FEA18203E6001F020FE5FFA58
:102DF00088F03E6001F01BFE3E60C4F8006825606C
:102E00002C20BDE8F84F0847C531000870B5164CB6
:102E10004FF6FF724FF6FF7394F8380094F83A10AB
:102E2000002818BF40F2DF12002918BF40F23F13FC
:102E3000002000210025FFF79DFF94F838000128AD
:102E400011D168090E280ED8002694F83A000128FE
:102E500007D1B009042804D8002000F0A5F90136F4
:102E6000F3E70135E9E770BD080100202DE9FE4FC9
:102E70000C46A3EB010B111A05460029029101DD56
:102E8000012008E005D00298404202904FF0FF3048
:102E900001E000200290BBF1000F019001DD01264E
:102EA00007E019BFCBF1000B4FF0FF364FF0000BDE
:102EB000002602985F464FF000084FF000094FF0DF
:102EC000000A584588BF07461FFA88F08742B8BFF6
:102ED000BDE8FE8FA8B2A1B202460B46FFF74AFF3B
:102EE0000C9800F061F90AEB0B0008F10108B842F8
:102EF000C8BF34440299019A4944B942C8BF154435
:102F0000B0EB070AD8BF8246B1EB0709D8BF8946A4
:102F1000DAE72DE9F8438146501E154698460E46DD
:102F200082B2581E83B24846FFF724FF089CB0B215
:102F3000404528BFBDE8F8834F46B8B2A84204D246
:102F4000204600F031F90137F7E70136EFE70000DE
:102F500010B5002007F0FAF8A548A44A4FF4004144
:102F60004FF4006341601360D0F8F843C0F80038B4
:102F70000160102007F0EAF8A0B210BD100801406F
:102F8000141001402DE9F04F87B0119F1C46904668
:102F900000EB5702CB1901F09CFE01203909109E6D
:102FA0004FF0000B17F00E0F18BF00EB171101FBCD
:102FB00007F00690A8F120004FF4C8717D084FF08B
:102FC0000008C2B22D48059212FB010004902F4860
:102FD00000EB021003902B4800EB8210029028486F
:102FE00000EB022001900698804543D0502F16D068
:102FF000102F18D00598182F00EB400009D0202F73
:103000000FD0402F09D00C2F34D1214901EB800083
:103010000AE01D4901EB001006E0019804E0049865
:1030200002E0029800E0039840440BF108074FF0DB
:10303000000A90F80090BAF1080F13D029FA0AF0AC
:10304000C007204608BF304600F0AEF80BF1010B78
:103050001FFA8BF0B0FBF5F101FB150020B10AF16E
:10306000010AE8E7BB4601E04FF0000B119F08F1B1
:103070000108B8E707B0BDE8F08F00BF743B010856
:1030800074DC0008B4C40008E4B20008F4AC000822
:1030900080A800082DE9FE4F07460D9899469246F4
:1030A0000E4600254FF00A084FF0000B4408032D90
:1030B00008BFBDE8FE8FC5F102000121020604D061
:1030C00001EB810101384900F8E7BAFBF1F0BBF1EF
:1030D000000FB0FBF8F101EB8101A0EB410105D13C
:1030E000012D03D8080410D04FF0010BDDE90C20AE
:1030F00041F030014B46CDE9002005FB0470CAB217
:10310000314601F029FC0135D1E7DDE90C10302210
:103110004B46CDE9001005FB0470314601F01CFC64
:103120004FF0000BEFE72DE9FC47DDF828809946CA
:1031300015460E4607464FF0000A4FEA58042A7813
:103140004AB1B8B231464B46CDE900A8FFF71AFFA5
:1031500027440135F3E7BDE8FC8700002DE9FE4F69
:103160001C469046894683465D0800260FF2300AC9
:103170000027072F08BFBDE8FE8F781EC0B20528C4
:103180000AD81AF800200BEB060049464FF6FF73E9
:10319000CDE9008401F0E0FB2E440137E9E700BFF0
:1031A00056312E302E39000011494FF400424FF4B1
:1031B00080634A60C1F8FC030C480360C1F8003822
:1031C0000A60704710B50949094B4FF480524FF41B
:1031D00000440A605C60C3F8FC034FF48060086040
:1031E000C3F80008C3F800281C6010BD141001408B
:1031F000100801402DE9F04F95B0DFF844AE9AF881
:103200001C0001282BD0002841F00683DFF8349EF3
:1032100099F8E60302282BD1D9F8B040D44901F03F
:103220004EFD00286FD0D24901F0CFFC002840F0BD
:10323000B78099F8C003002840F0B2809AF82400C3
:10324000002840F0AD809AF8250001308AF825006A
:10325000C0B2032824BF0120AAF824006FE09AF826
:103260003000012808D1DFF8DC0D90F8D1031CE014
:1032700000208AF8240093E03D2000214FF4F072F2
:103280001E230090002003F0F9FA40F29F1008215D
:1032900043F286121023FFF761FF0120DFF8A41D1F
:1032A0008AF83000FF2081F8D103DFF8988D98F874
:1032B000D01388420FD03F20012908BF3E20009044
:1032C0004FF4C77006211522152303F0D7FA98F89A
:1032D000D00388F8D10398F8C90398F8CA1381423B
:1032E00034D0012803D098F8CB13012929D17020BC
:1032F00003212A221823009040F2631003F0BEFA43
:1033000098F8C90320E09AF8230001308AF82300D6
:10331000C0B215280AD300208AF823009AF82200A8
:10332000013000F003008AF8220001E09AF8220040
:1033300000218AF82410DFE800F0022A262856200F
:1033400026E000218AF8301088F8CA0398F8E603CE
:103350004FF6FF7B00F0FE0102294FF6FF7140F0AF
:10336000848798F8C41398F8C5238A4200F0E28055
:10337000032900F2D980DFE801F002CFCBCD012094
:1033800088F8E703D0E0582002E0592000E05720F9
:1033900000904FF4D77028212422222303F06EFAE4
:1033A00099F8E80301280FD1DFF89C0C81694A1EC7
:1033B0000029826108DC002189F8E8134FF4967136
:1033C0008161172089F8E6039AF8201099F8C6035E
:1033D00019B108BB99F8C2130CE0012101288AF841
:1033E00020100CD0C0B999F8C213012909D80220C5
:1033F00089F8E6030020022938BF012002E00320FB
:1034000008E0002099F8E61301F0FE01022903D13B
:1034100010B1022089F8E60399F8E60399F8E7234A
:103420004FF6FF71824200F0D580DFF81C2C514B23
:1034300089F8E703D1815049FF22C9E90433C9F86B
:103440003830C9F8303089F8B92389F8CE2389F8A3
:10345000D42389F8C7238AF81E20C9F81C10C9F89C
:103460005410C9F8081001F0A9FAC9F89C10C9F85D
:103470004410C9F8A410C9E92311C9F8941099F8A7
:10348000C41309B189F8C523A0F11D01CAB2202ACD
:1034900004D300F17F02D2B2012A22D89AF8212067
:1034A00082B904201E214FF4F0724FF49173009002
:1034B000002003F0E3F901208AF8210099F8E603DF
:1034C000A0F11D01C9B2062904D3A0F12D01C9B292
:1034D0000D2911D800904F2046214FF4A172A52349
:1034E00076E00021009000204FF4F0724FF49173C9
:1034F0008AF821101E216BE0A0F12301C9B207292F
:103500004DD8009050203B2140F23F12BB235FE09A
:10351000462002E0442000E0422000907B207B21F6
:10352000EB22672303F0AAF998F8C41398F8E6038E
:1035300088F8C51302284FF6FF7140F0968698F878
:10354000C003022804D0012818D0002840F04E867D
:1035500018200024342100224FF6FF73CDE90040EB
:1035600040F24510FFF796FDAAF8524000F03EBE2B
:103570000000A04200007A4400007F4398F8C20394
:10358000012802D198F8D90320B198F8C943022C38
:1035900040F0F5840020AAF8520000F027BEA0F108
:1035A000810102290ED3A0F13B0102290AD3A0F127
:1035B0002B0101290ED80090482058214FF4A87201
:1035C000822305E00090092057214FF4E7728423FD
:1035D00003F054F99AF8280001280DD0002840F093
:1035E0003B81B9F8BA0328B399F8E663022E2AD0D2
:1035F000032E2DD1192127E0B9F8BC0399F8C46333
:1036000050B14EB999F8E663022E00F08980032E7E
:1036100040F08B80192184E0D9F89840D9F8A000B7
:1036200001F0CDFA002847D1002E40F01281D9F8E0
:10363000B4504CE09AF83100002800F0AB8001381B
:103640008AF83100EDE00521D0FA51F0A9F8BA036B
:103650000020C9E90200C9E90400D9E9064001F0E7
:10366000AEFA30B901F0C3F940F0DB80D9F8205050
:103670000AE0D9E9085001F0A5FA002840F0D1800D
:1036800001F0B5F940F0CD8099F8CD03C9F8245088
:10369000C9F81C40002808BF254601F0CEFA0446B0
:1036A000022E00F0B480032E40F0BB8001F041F9FF
:1036B00040F289105021B0E0D9E92D5001F082FA92
:1036C0000021002840F0C680002E40F0C38099F809
:1036D000C01399F8C22399F8D93399F8E603C9F8C9
:1036E000B850C9F8A040090608BF254682F001017C
:1036F000DAB2114318BF2546CAF87050022800F00C
:103700009480032840F0A58001F097FA024620201B
:1037100043F28611CDE900104FF4CA70CD2194E038
:103720000521D0FA51F0A9F8BC0399F8C973022F0A
:1037300004D0E248C9F8B800C9F8A000D9E9264089
:10374000D9F8BC5001F03BFA28B1D9F8C00001F01B
:1037500039FA00287DD1C9F8C050C9F89C40022F21
:1037600008BF2C4601F040FA0446022E07D0032E73
:103770006FD101F0DEF84FF4CA70CD2107E062206E
:1037800001F026FA01F021F94FF48770782143F611
:103790007F435CE001F02BF943D1D9F82850D9F8E8
:1037A00000B000212846FFF76BF8C54906462846B9
:1037B000FEF7BEFFC349FEF7EDFF01F014F985F0F7
:1037C0000041002E18BF084699F8CD83B8F1010FCB
:1037D00018BF0846FFF78BF899F8C9730546012F03
:1037E00040F0FB83B8F1010F40F03A84B44C5846E6
:1037F0002146FEF79DFFB349FEF7CCFF01F0F3F839
:10380000B149C9F80400FEF73BFF0646F6E35E2027
:1038100001F0EDF901F0D9F878214FF66143FFF797
:1038200039FC9AF82800411C14E0602001F0D0F91E
:10383000DAF87000FFF75BF80246502041F6A3016A
:10384000CDE900104FF4877078214FF6FF73FFF732
:1038500021FC00218AF8281099F8E603022800F0DC
:10386000CA80032840F0E2809AF81F0058B900206F
:1038700029214FF4BC72FA2300901220FFF749FB74
:1038800001208AF81F00D9F800409049D9F8485023
:1038900001F081F999F8C973012F18BF2046FFF78D
:1038A00026F80446FFF715F801462846FEF7DAFF2A
:1038B000064601F0C2F90546002E08BF254699F8D4
:1038C000D903B421012808BF982199F8C20301281F
:1038D00018BF982159F80100FFF709F8044699F834
:1038E000C00338B1D9F8B0007949FEF79FFF00282E
:1038F00000F05B81002401F07AF840F0A58028B246
:10390000FEF7E7FF73490546FEF79EFF724E00285B
:103910001CBF0025C4F2FA3528463146FEF778FF71
:103920006E4A00281CBF0025C4F2C825284631462F
:1039300006F04AFFAAF858002046FEF7D3FF684970
:1039400001F094F900281CBF0024C4F2483420463A
:1039500000210026FEF75CFF0028624A18BF002401
:103960002046002106F030FFAAF85A0040F2651701
:1039700044F6384B4FF0000ABA455BD00AF112000A
:1039800009EB0A08009684B20AF1140098F8EC10CA
:1039900098F8ED3085B220462A46FFF767FA98F886
:1039A000521298F8533220462A460096FFF75EFAE4
:1039B000BAF5B27F14D04FF2604098F8EE3098F824
:1039C000ED102A4600902046FFF750FA98F854323E
:1039D00098F8531220462A46CDF800B0FFF746FA71
:1039E00098F8ED000AF1010A88F8EC0098F8530203
:1039F00088F85202C0E7D9E90045D9F8100001F073
:103A0000DEF8002840F0C680B9F8BA1399F8CD0363
:103A10000029C9E9044500F0CF80002800F0D980D2
:103A2000D9F820002849FEF72BFECFE000208AF8C5
:103A30001F002FE1DFF820AEBAF8580089F85102D4
:103A4000BAF85A0089F8B703DFF8286E002448F264
:103A50000F454FF02A084727BCB1052C44D004FB82
:103A600008F04FF4BC720095283081B212200B464A
:103A7000FFF7FCF904FB07F02821FA230095123028
:103A800080B20246FFF7F2F915E0122028214FF428
:103A9000BC7228230095B047122028211222FA2355
:103AA0000095B0471220FA2101F072F94FF4BC7072
:103AB000282101F06DF90134CEE700BF00007F43FB
:103AC000000010410000A0400000F4C2000048C205
:103AD0000000F0410000FA430000C8420000164414
:103AE0000000484300007A4373202A212F22192323
:103AF0000090142002F0C2FEDFF8884D0C250FF66E
:103B000078521520462101F032F80FF67C5215202C
:103B1000702101F02CF80FF67C5215209A2101F04B
:103B200026F80FF67C521520C42101F020F80FF67C
:103B30007C521520EE2101F01AF874202A21172258
:103B40001723009040F25F1002F098FE0FF66852C3
:103B50004FF4B270462101F006F80FF660524FF4B0
:103B6000B270702100F0FFFF0FF654524FF4B270A4
:103B70009A2100F0F8FF0FF64C524FF4B570C421B3
:103B800000F0F1FF0FF640524FF4B870EE2100F054
:103B9000EAFF7FE0D9F8140001F014F8B9F8BA137D
:103BA00000283FF433AF91B330E7022F7FF4A3AE88
:103BB00001F0A2F804469EE699F8C96360B1904905
:103BC0002846FEF75DFD012E18BF28468D4C8E4D10
:103BD0000AE0D9F8180005E08C4900F0DCFF012E5E
:103BE00018BF20468A4C8B4DFEF7C7FE02460B4697
:103BF00028462146FEF77FFBFEF711FD02466A20AC
:103C000027214FF6A04300901A20FEF71FFFD9F896
:103C10009840D9F8A400D9F8B45000F0D0FF10B9FA
:103C2000D9F8BC600CE0D9F8A800D9F8BC6000F065
:103C3000C9FF28B1D9F8AC003146FEF721FE48BBD8
:103C400009F1A40070C099F8C003012809D199F8BE
:103C5000C203012805D199F8D90310B9B9F8BC03FA
:103C600020B101F045F808BF3446254600F0E5FFD5
:103C7000FEF7C8FC684B00F056FEFEF7D0FC02468B
:103C80006B204FF4E37140F25F43009040F2B910B3
:103C9000FEF7DCFE99F8E603011F11F1020FC0F0F8
:103CA000C98046F269605D214FF481724FF49473CC
:103CB000ADF850003020109346F268531291CDE9D0
:103CC0000C21CDE9072199F8B813119213900E90A9
:103CD00009905A20ADF83C30C123069099F8B903F9
:103CE0000B9346F26743ADF82830884247D006ACC4
:103CF000012604F10805042E10D099F8B903864274
:103D000009D16F7AAB882A8835F8041C35F8080C7D
:103D1000009702F0B3FD14350136ECE799F8B903CA
:103D200008B104280DD300253C2D0AD06619605B2C
:103D3000B3893289B188767C009602F09FFD1435F4
:103D4000F2E799F8B803411ECAB2022A0FD89000D0
:103D500050FA81F134F8210004EB8104A38922890F
:103D6000A188247C009402F089FD99F8B803B74932
:103D7000002289F8B9038AF8292000F01FFE0028E4
:103D800056D09AF82900002852D1D9E91A06D9F854
:103D90001850D9F82040FEF7AAFDADF8120000F047
:103DA000E4FFADF81400D9F87000FEF7A0FDADF8FF
:103DB0001600D9F87400FEF79AFDADF80C00D9F89A
:103DC0007800FEF794FDADF80E00D9F87C00FEF700
:103DD0008EFDADF8100000F030FF054600F004FF46
:103DE00000210DF1120203AB032917D032F8114064
:103DF000AC421DD033F8114001318442F4D117E0B8
:103E00000000F4C2E3A5BB3FD9CEF753000048C27F
:103E10009999C93F9A9999990000E43F8B48C9E95B
:103E20003500C9E93700C9E9390001208AF82900BD
:103E300099F8E60300F0FE00022840F09B80D9F8D4
:103E40006840D9F8D400D9F8745000F0B8FE20B119
:103E5000D9F8E00000F0B6FE90B900F003FF08BF0B
:103E60002C4600F0C1FE00F059FE602000F038FE44
:103E7000D9F86800D9F87410C9F8D400C9F8E0106E
:103E8000D9F86C40D9F8D800D9F8785000F097FEEE
:103E900020B1D9F8E40000F095FE90B900F0E2FE00
:103EA00008BF2C4600F0A0FE00F038FEC72000F04E
:103EB00017FED9F86C00D9F87810C9F8D800C9F8FD
:103EC000E410D9F87040D9F8DC00D9F87C5000F043
:103ED00076FE20B1D9F8E80000F074FE98B900F041
:103EE000C1FE08BF2C4600F07FFE00F017FE4FF425
:103EF000977000F0F5FDD9F87000D9F87C10C9F87A
:103F0000DC00C9F8E810D9F88040D9F88C0000F03E
:103F100056FE50B900F068FE00F000FE8D2000F063
:103F2000DFFDD9F88000C9F88C00D9F88440D9F8B1
:103F3000900000F044FE50B900F056FE00F0EEFD97
:103F4000F42000F0CDFDD9F88400C9F89000D9F82C
:103F50008840D9F8940000F032FE58B900F044FED1
:103F600000F0DCFD40F25B1000F0BAFDD9F88800EB
:103F7000C9F894009AF81C00013000F04BBCD8F846
:103F80000000D8F82810D8F81870FEF7CBFBFEF721
:103F9000AEFC012C08BF323800B2FEF79AFC2C4967
:103FA00005463846FEF76CFB29468146FEF73EFC87
:103FB000284904463846FEF763FB064634B93046C6
:103FC0002946FEF74FFC002800F0CC8030462946F9
:103FD000FEF71EFC40BB0120FFE0B8F1010F40F0EE
:103FE000A9801D4C58462146FEF7A2FB1B49FEF74F
:103FF000D1FB00F0F8FC0646C9F804002846FEF79D
:1040000068FC014600F0AEFE0546D9F8D000D9F8AC
:104010004C602146FEF78CFB1049FEF7BBFB00F01D
:10402000E2FC0146284629E048462946FEF70CFCFA
:10403000002840F0D78000208AF82600D0E000BF9A
:1040400008010020CC1700200000002000007F4362
:104050000000C8420000C8C2000010410000A0409B
:10406000E64900F02FFE06462846FEF732FC0146E0
:1040700000F078FED9F84860D9F8D010FEF700FBC0
:10408000FEF735FC0546FEF724FC01463046FEF7F8
:10409000E9FB10B100F069FE0546142059468AF884
:1040A0003100D9E90160FEF7EBFB99F8E64338B13E
:1040B000D9F80C003146FEF7E3FB00287FF4B1ABE2
:1040C000022FC9E902B615D099F8D303012811D1FE
:1040D0009AF83200002863D009F11800B8F1010FF6
:1040E00008BF09F120000068FEF701FC0546CAF888
:1040F000740001E0CAF87450032C0ED0022C7FF437
:1041000090AB5C2000F073FDBAF87420502041F6AB
:10411000A301CDE90010782108E0202043F28611A8
:10412000AAB2CDE9001040F2891050214FF6FF737A
:10413000FFF775BB2846FEF7CCFB014600F0C2FD39
:10414000D9F8D010D9F84860FEF79AFAFEF7CFFBFD
:104150000546FEF7BEFB01463046FEF759FB002838
:1041600098D09AE79AF82700022835D1DFF8EC06B4
:10417000018A0139018209B2002933DC322101822E
:1041800038462946FEF7CEFAFEF7B1FB01B280EAC7
:10419000E130A0EBE13000B20128D8BF01201FE0E0
:1041A0002846CAF87450FEF794FBD9F81860944971
:1041B000804600F0D7FD4146FEF754FB00289BD116
:1041C000904900F0CFFD4146FEF730FB002893D127
:1041D00001208AF832008FE702208AF82600642046
:1041E000AAF852009AF826008AF82700DFF86C1621
:1041F000BAF85200C98981423AD0C0B2642828BFB7
:104200006420012898BF0120C0F16400FEF76AFB1A
:104210007D49FEF7BFFA7D49FEF78AFAFEF767FB94
:10422000C0F5877044F25071432384B20091CF20CF
:104230003F212246FEF76DFE41F6A3003F214FF4D9
:104240008772432300902046FEF763FEBAF852209F
:10425000182000214FF6FF73CDE9001040F2451001
:104260003421FEF717FFBAF85210DFF8F005C181CC
:1042700098F8E67307F0FD002D2804D1D8F82C50EB
:10428000D8F8344007E0D8F81850D8F82040C8F8DB
:104290002C50C8F83440D8F83000D8F8386000F016
:1042A00091FC18B1304600F08AFC28BB47F00200B0
:1042B000C8F83840C8F830502F281DD198F8CD03E1
:1042C00098F8DC63002808BF2C4600F08DFC0246FD
:1042D000202043F266114FF6FF73CDE90010F0B2D3
:1042E000022808BF4FF4FC634FF487702F2F18BFCC
:1042F0005B469621FEF7CEFE9AF82A0058BB0120B5
:10430000D8F81860D8E91A548AF82A00D8F80000BA
:10431000FEF7EDFA00EBC0000527B0FBF7F0203008
:1043200080B2FEF7DFFAC8F8040000F01EFD00F0CE
:10433000E7FCC8F8200000F080FC00F0E1FCC8F8C1
:10434000740000F051FC00F0DBFC00F0E5FC00F034
:10435000D7FCC8F87C0098F8CD9398F8CE734F45F9
:104360002DD0D8F80000D346D8F81860D8E91A5AEA
:10437000FEF7BDFA00EBC0000524B0FBF4F02030DE
:1043800080B2FEF7AFFAC8F8040000F0EEFC00F0CF
:10439000F3FCC8F8200000F050FC00F0EDFCC8F879
:1043A00074005046DA464FF6FF7BFEF7A0FA00F0A5
:1043B000E3FC00F0B1FC00F0DFFCC8F87C009AF8E8
:1043C0001D00062800F22582DFE800F00482224664
:1043D00009A0BD004F4540F0C980012017E298F8C0
:1043E000E603372840F0148198F8DD03012800F037
:1043F0000581002840F008826F2000E1000048C2DB
:10440000000020C1000020410000C84200007C42A2
:1044100098F8E603232840F0A78098F8DF030138D6
:10442000C1B2032900F2A080C000DFF83C5478211B
:1044300014221423C4B2BD4800F032FCBC4EA121AA
:104440001422142306F57F4000F02AFC26FA04F01B
:10445000CA2114221423B6E198F8E603A0F123013F
:1044600000F0A5FA00F2D081012202FA01F140F633
:104470006162114200F0C8812D2808D0352806D08D
:10448000372802D198F8DD1309B1392804D14E201C
:1044900000F0BBFB98F8E6032F2805D0372808D199
:1044A00098F8DD13012904D1512000F0AEFB98F8F3
:1044B000E603232840F0A88198F8DF03512104285F
:1044C00008BF4E210091C420FF2158222D2337E040
:1044D00098F8E603A0F11D0100F069FA00F294815A
:1044E000012202FA01F140F67742114200F08C817C
:1044F0001D2840F0BA8098F8CC03002800F0AC806A
:10450000012840F0B2808924B121A7E098F8C003C7
:104510009AF81E10814200F0778198F8C913022999
:1045200000F0728198F8E61300288AF81E0056D130
:10453000022954D14020282196224B230090A52007
:1045400002F09CF960E19AF82D2098F8C913022A2C
:104550001DD102291BD098F8E6038AF82D100228F5
:1045600040F068817C205EE1032050E198F8E6038A
:10457000022825D198F8C41311BBB9F1010F00F03E
:104580002F81B9F1000F40F03B814C2029E1002040
:10459000022A00F03C81022940F0398102208AF889
:1045A0002D0098F8E603022840F0448198F8D603DD
:1045B000002800F03481012840F034817E202FE172
:1045C0002F2818BF2D2840F00181B9F1010F00F00C
:1045D0000E81B9F1000F40F01381482008E1012855
:1045E00008BF022940F0108198F8D603002800F097
:1045F0002381012840F023817E201EE16C20009061
:10460000CD20BE214622202302F038F998F8E60397
:10461000352840F0F980EC20832143F266122023F4
:104620004FF0EC0843F266152026FEF797FD0027B1
:104630008BA4072F00F0E880781EC0B2052809D8A7
:10464000225C08EB0710B5214FF6FF73CDE9005649
:1046500000F082F90137ECE7B12489215A2000F0FB
:1046600037F95B20214600F033F998F8E6031F285C
:1046700012D198F8CF03012803D0A8BB8924B12117
:1046800001E0B12489215A2000F022F95B20214663
:1046900000F01EF998F8E603212810D198F8D2030B
:1046A00020B101280BD18924B12101E0B124892155
:1046B0005A2000F00DF95B20214600F009F998F826
:1046C000E603312812D198F8D503012803D0D0BBD6
:1046D0008924B12101E0B12489215A2000F0F8F8A1
:1046E0005B20214600F0F4F898F8E603332810D157
:1046F00098F8DB03012803D058B98924B12101E0DF
:10470000B12489215A2000F0E3F85B20214600F013
:10471000DFF898F8E603252817D198F8E103022876
:1047200008D0032870D18924B12105E0797A7A7AFA
:104730007A7A797AB12489215A2000F0C9F85B206D
:10474000214600F0C5F898F8E60327281ED198F80E
:10475000E30300F00DFB57D8C000434D752125221F
:104760001E23C4B2414800F09BFA414E9E212522EF
:104770001E2306F57F4000F093FA26FA04F0C721C5
:1047800025221E2300F0BBF898F8E60329283BD128
:1047900098F8E50300F0ECFA36D8C000324D7521E8
:1047A00025221E23C4B2314800F07AFA304E9E21F1
:1047B00025221E2306F57F4000F072FA26FA04F047
:1047C000C72125221E2300F09AF81DE0032817D1E7
:1047D000B9F1010F37D0B9F1000F11D14A2033E000
:1047E0004D200090C820AA211422152306E049205C
:1047F00000904FF4A07099211C221B2302F03EF878
:1048000098F8CD0388F8CE039AF81D0001308AF895
:104810001D0000208AF81C0015B0BDE8F08F7B2039
:1048200000F0ECF97520009091205021BE22232346
:1048300002F024F80020EAE77B2000F0DFF90748C7
:10484000A0F80EB0E0E74B2000904FF4DC7054214C
:104850001A221823D2E700BF080100200000002020
:1048600056312E302E3100007D6800085A5B5B0007
:104870005B5B5A006D2E0008353030283933322901
:104880000000000027310008343030283735322945
:104890000000000033303028353732290000000096
:1048A00032303028333932290000000031303028CE
:1048B0003231322900000000323030003135300012
:1048C000313030003530000030000000FEE7704726
:1048D00025221E2300904FF4AA7001F0CFBF0120C3
:1048E0008AF80D0000208AF83200502068614FF4E9
:1048F0007A70A9F8BA0399F8CD0301287047C0B2BD
:1049000000904FF4AA702847206820F00100206032
:1049100010BD95F83500013885F835000006704760
:104920000022FDF741BC0022FDF7E5BC2946FDF75A
:104930007DBF202043F28611A2B2CDE9001070475E
:10494000B4F860000130A4F8600080B27047D9F874
:1049500020004FF04241704780B2FEF713BBCDE913
:104960000144ADF814407047BDF808100A31ADF8A5
:1049700008109DF80B1001317047042002F052BB63
:10498000656005F009BC4FF47A704FF07E517047B6
:1049900001F0070125F4E04545EA013170472D207B
:1049A00087F8E603002070470446FDF731BFCAB21E
:1049B000C90141EA5201C9B20B297047C9E9351151
:1049C000C9E93711C9E939117047502041F6A301EF
:1049D000A2B2CDE90010704781F82D20002131727C
:1049E0000221022870474FF08441FDF749BE99F833
:1049F000C4030028704700BF00BF00BF00BF00BF56
:104A000000BF00BF00BF00BF00BF704797F8E603BC
:104A100000F0FE0102297047C9F82410C9E92311EA
:104A2000C9E92512C9F89C1089F8B8037047C4F881
:104A3000006825606560C4F8FC03704750F82100E9
:104A400052F821100068C9F818000968C9F89810D0
:104A50007047A7F8BC03D7F8BC00FDF711BEA7F854
:104A6000BC03D7F89800FDF70BBEA9F8BC03D9F832
:104A7000BC00FDF705BE686101208AF80D004FF407
:104A80007A70A9F8BC03D9F89800FDF7F9BD07F1D1
:104A90008C0002EB8102704709F18C0002EB81026D
:104AA0007047BDF808109DF807201144B1427047C7
:104AB00020464FF07E51FDF7E3BD0020012110227A
:104AC00084F82004C4F81804C4F81C0404F58260B7
:104AD00002F082BA4FF04241C9F82000FDF7D0BD84
:104AE0004FF48C71FEF7D6BA0A6842F001020A60F0
:104AF000704787F8E60397F8E10397F8E31397F810
:104B0000E52387F8E00387F8E21387F8E42370478A
:104B100097F8B813C7F89840032970470246182041
:104B200043F286114FF6FF73CDE90010704797F8F6
:104B3000B813C7F8BC4003297047C4F81014C4F870
:104B4000140404F5A2604FF48171FDF78EBD99F84D
:104B5000B813C9F8BC400329704799F8B813C9F8CD
:104B600098400329704744F63843009520474FF298
:104B70006043009520470021017299F8C91302296A
:104B8000704780F83010C185816280F82C10704722
:104B90002046FDF767BE2046FDF772BD002030724B
:104BA00081F832004FF47A70A7F8BA0397F8CD0372
:104BB000012870474FF042413862FDF761BD214640
:104BC000FDF75EBE2946FDF75BBE2046FDF73CBE05
:104BD000D4217B22192300904FF4877001F04EBE40
:104BE00078632846FDF74CBD2046FDF780BED221F4
:104BF0007B221C2300905A2001F040BE0090A5208B
:104C0000282196224B2301F039BEFA2158222D2368
:104C10000090C42001F032BE0A6842F001020A602E
:104C2000010E84F8240484F82114010C84F8221461
:104C3000010AF02084F8250470472846FDF757BE86
:104C40000446FDF7F3BD01462046384799F8E603D0
:104C500000F0FE000228704700248AF83240C9F8AC
:104C6000BA03704799F8CD03012870470446FDF751
:104C7000EBBD89F8BE43C9E92300C9F89400D9F80F
:104C800098007047286840F001002860704787F856
:104C9000E6130238B0FA80F0400987F8C60370477F
:104CA000E040C0B200904FF4AA7028478DF80B1076
:104CB0009DF80B1070479AF80E1001297047204696
:104CC000FDF7B4BD5846FDF7DBBC0130C1B2032986
:104CD0007047013A013B92B29BB2FEF74BB805F523
:104CE000A2604FF48171FDF7C0BC0446FDF7BABD68
:104CF00099F8C90302287047D9F8BC00FDF7F7BD41
:104D000000EBC000B0FBF7F0203080B2FDF7EABD49
:104D100001463046FDF78ABDC8F87800D8F8700023
:104D2000FDF7E5BD272087F8E60397F8E20387F84B
:104D3000E3037047252087F8E60397F8E00387F838
:104D4000E103704797F8C90302287047292087F8C4
:104D5000E60397F8E40387F8E503704797F8DC0368
:104D6000022870473046FDF78BBC3046FDF7BFBDCB
:104D70000138C1B20229704700EBC000B0FBF4F06B
:104D8000203080B2FDF7AEBD0020A4F8600070476F
:104D90004FF4BC72FA230095304786F8E40304F11F
:104DA0002600284786F8E20304F12400284786F805
:104DB000E00304F12200284786F8C90304F120002B
:104DC000284786F8D90304F11E00284786F8D30344
:104DD00004F11C00284786F8D60304F11800284780
:104DE000B8633863B869FDF79DBCC9F89C00C9E990
:104DF0002300C9F89400C9F82400C9F81C00002059
:104E0000C9F8BA13704786F8D00304F11600284792
:104E100086F8CD0304F11400284786F8C60304F190
:104E200012002847C6F8880004F110002847C6F889
:104E3000840004F10C002847C6F8800004F1080043
:104E40002847D7F82C802846FDF772BC4FF48073B2
:104E5000CDF800905047044628462146FDF7D8BCBF
:104E6000044628462146FDF7EFBC70477047000016
:104E70002DE9F041DFF87C6B3078013830700006A6
:104E800048D1DFF8744B1420307094F8D003012817
:104E900013D1DFF8685B95F8340002281DD0012893
:104EA0000ED058BB02F08CF8307A012820D028BBF5
:104EB000012085F8340002201EE002F081F829E08C
:104EC00002F084F8FFF725FD18D1317A022085F829
:104ED000340089B101290ED010E002F071F8FFF71B
:104EE00018FD0BD102203072002085F8340003E059
:104EF000012085F83400192085F8350094F8C403A2
:104F000040B1707801387070000603D10120307212
:104F100028207070DFF8147D97F8C003022809D1AB
:104F2000FC6D00212046FDF7ABFC18B9BF49FFF727
:104F300032FEF865B0890138B081000441F000808C
:104F40000120B081DFF8EC0C00F128042046FDF7C9
:104F500074FE01462046FDF7CBFD0138092800F21A
:104F60007180DFE800F0051C6F6F35576A0D272E42
:104F700097F8E603411F162900F24F81022015E041
:104F8000DFF8AC0C90F82E1000295BD1012180F8DD
:104F90002E10FFF73BFD40F0E8820020EEE297F88C
:104FA000E603411F162900F2BB8003203071D9E0CF
:104FB000307247E0FFF72AFD40F0DE8007203071B5
:104FC00063E0FFF723FD40F0FD800820307181E0B1
:104FD00097F8E603A0F12301062940F25A81811EC9
:104FE0000229C0F0BF801B2800F0D1832F2800F0D9
:104FF000DB83372800F0CE83392840F0B68397F85A
:10500000C603002800F0DA84012840F0AB800320BA
:1050100000F0D5BCFFF7FAFC14D19349FF22C7F882
:10502000BA139249C7F89C10DFF8041CFFF7D4FCB0
:1050300008BF0321FFF72BFE04E0DFF8F40B00218B
:1050400080F82E103079172800F23385DFE810F051
:105050001800DD019C0148025102A30125021D0038
:10506000420060026B01BB0175019D00C3003E025E
:10507000310531053105830279022E013105920196
:10508000052087F8E60300F012BD97F8C403002856
:1050900040F00D85DFF8981BFFF780FD00F03683A8
:1050A000002840F04B83B8697149FDF7E9FA71496E
:1050B000FFF7C6FD10B96F4C0020F8616E4920461D
:1050C000BC61FDF735FB6D49FDF764FBFFF78BFC19
:1050D000386233E397F8C403002840F0E884DFF82F
:1050E000501BFFF75BFD00F03683002840F0B083D3
:1050F000B8696349FDF7C4FA6249FFF7F6FD10B9D4
:10510000604C0020F8615C492046BC61FDF710FB53
:105110005A49FDF73FFBFFF766FC386200F098BB89
:10512000A0F11D011A2900F24E83DFE811F0B00052
:105130001B0062031B0068031B001D001B00D8033B
:105140001B00DF031B0009041B0078037D036E03B3
:105150001B00D2031B006B031B0082031B001B0000
:105160001B006503002023E797F8DF0301380106E1
:1051700008BF042000F0F2BB2F287FF463AFFFF7D5
:10518000EDFD7FF45FAF0D20307197F8CD0301285E
:1051900000F0F781002840F08A84BC693649FD6A36
:1051A0002046FDF7C5FA3549FDF7F4FAFFF71BFC79
:1051B0002F49FFF715FD33490546FFF7ECFCFFF7D4
:1051C0004FFE24E02F287FF43DAFFFF7C7FD7FF4AB
:1051D00039AF0E20307197F8CD03012800F0DD8142
:1051E000002840F06484BC692349FD6A2046FDF72D
:1051F0009FFA2249FDF7CEFAFFF7F5FB2049FFF7AA
:10520000EFFC21490546FFF7C6FCFFF724FE002806
:1052100018BF2546FD6200F04ABCA0F11D011A2905
:1052200000F2D8820FF20800D0E811F0000080BF31
:1052300031003000E3023000E90230009103300019
:105240009C03300074033000AE033000F902FE020C
:10525000EF02300067033000EC023000030330003F
:1052600030003000E60200BFE803E80300007F439F
:10527000000020410000FA43000010410000A0405F
:10528000000020C10000C8420000C8C26AE709202F
:105290008CE6DFE811F06D026A0207006A0207007F
:1052A0006A0207002320FFF724FC5BE7CF48D04CBD
:1052B000D04DD1490023012287F8E82387F8B8337D
:1052C000BB6287F8D83387F8D63387F8D223A7F89C
:1052D000CC33A7F8C83387F8C6333B6587F8DB3390
:1052E00087F8D93387F8D52387F8D323C7F89800F0
:1052F000C7F88800C148C7E92054C14CB961386774
:105300004FF48070C7E91A41A7F8CF034FF001307E
:10531000C7F8E20340F20220A7F8E003B948C7F853
:10532000BA0300F0C4BB97F8CF03002800F0468111
:10533000012840F0BC83002041E197F8CD0301280B
:1053400000F04281002840F0B283BD69AE49FFF70A
:1053500078FDAE49FDF71EFAFFF745FBAC49FFF7B4
:105360003FFC054640462946FDF77CFAA94904461C
:10537000404644E097F8DD03002800F0338101281F
:1053800040F0958300202EE197F8E603811C1A284F
:1053900088BF0521AAE097F8C403002840F087835E
:1053A000DFF88C18FFF7FAFB00F05F82002840F06E
:1053B0004683BC699849FFF782FC002800F02583EA
:1053C000FFF776FB24E397F8CD03012800F0308146
:1053D000002840F06C83BD698B49FFF732FD8B4993
:1053E000FDF7D8F9FFF7FFFA8C49FFF7F9FB0546FF
:1053F0004046FFF79BFA044640464FF07E51FDF7CA
:105400003FF9002C08BF284630E197F8E613481F03
:10541000362800F2F582DFE810F037004A03E00694
:105420004A03D9064A03ED064A039F064A03C0060B
:105430004A03B0064A030A074A03EA064A03110769
:105440004A03E7064A034A034A03F3064A032007CE
:105450004A0317074A034A034A034A034A034A0313
:105460004A034A034A032907A90635074A03D00617
:105470004A03B7064A0301074A0332074A034A03AD
:105480004A034A034A03F5021D2087F8E603FFF7A3
:1054900059FC08BF97F8CB03A8E197F8C40300288C
:1054A00040F00583DFF88817FFF778FB00F0E7810D
:1054B000002840F0E882BC695849FFF769FB0028E2
:1054C00000F0C7825349FFF766FBC5E297F8D203A5
:1054D000002800F0CD80012840F0E9820020C8E0DB
:1054E00097F8E603811E062838BF1B2187F8E613CC
:1054F000DDE297F8C603012800F0C080002840F0E4
:10550000C08097F8C203012800F2BB800220B6E0F9
:1055100097F8CC03012800F0DE80002840F0C78215
:10552000FFF710FC40F05D810120002187F8CC03DB
:1055300040F2FF10A7F8CA03DFF8F40680F8301035
:10554000B5E297F8DB03012800F0D480002840F092
:10555000AE820120CFE097F8D503012800F0D0807B
:10556000002840F0A4820120CBE0411F372901D35D
:10557000812804D197F8E80308B90420307101208C
:1055800016E5786B26493C6AFDF77AF82549054609
:10559000FFF701FBFFF764FC0AE0786B22493C6AE5
:1055A000FDF76EF821490546FFF7F5FAFFF753FCC2
:1055B000002818BF254628467D634DE0012087F866
:1055C000CD0387F8CF0372E2386A18497C6BFDF788
:1055D00057F8054620462946FDF744F90D4980460F
:1055E000204632E0012087F8DD0360E2000020421F
:1055F0000000F0410000A0410000BE430000C8438D
:105600000000AF43E803E803000010410000A040A1
:105610000000C8C2000080BF0000FA430000C8427A
:105620000000204100005443000020C1000054C38A
:10563000386AE5497C6BFDF723F805462046FFF7FD
:1056400075F9804620464FF07E51FDF719F8B8F104
:10565000000F08BF284678634FF04241FDF710F86D
:10566000DA49FDF765F8DA49FDF794F8F8621EE2C9
:10567000012087F8D00387F8D20318E2032087F8C7
:10568000E603DFF8700D90F82F10012906D10021F4
:10569000A0F82F104FF60171A7F8C913002180F868
:1056A000311097F8C41311B1FF2187F8C51397F88B
:1056B000C913022905D1FF2180F82D104FF47A700B
:1056C00003E0C448C7F8A0000020C249A7F8BC0303
:1056D000C7F89C10EBE1FFF735FB40F08480FF2119
:1056E0000020A7F8CA13DFF80C1D87F8CC0381F857
:1056F0003000DCE1002087F8D90387F8DB03D6E12E
:10570000002087F8D30387F8D503D0E1386AB2497F
:10571000FCF7B6FFB149FFF793FA10B9AF4C002080
:10572000786220464FF042413C62FCF7A9FFA7494E
:10573000FCF7FEFFA649FDF72DF8B86197F8B813FE
:10574000032900F2B181FFF7A2F9DFE811F0B001FF
:10575000AB01A601A9013C6AA149FFF719FA00288B
:105760006AD0A049FFF717FA69E00120FFF71EBCD5
:1057700097F8DF03013803283FF6F4ACDFE810F0B8
:1057800004007A044E045504FFF7D4FAEAE4042036
:10579000FFF70CBC97F8DD03012800F00B8100280F
:1057A0007FF4E0AC17200AE197F8DC03012871D1FF
:1057B0000220B9693A6A87F8DC038648C7E90B100A
:1057C000C7E90D20CEE402380228BFF4CBAC062096
:1057D000FFF7ECBB02380228BFF4C4AC0520FFF78A
:1057E000E5BB012000E0002087F8C90387F8CC035F
:1057F0005DE10A20FFF7DABB1720FFF7D7BB0F20C8
:10580000FFF7D4BB1320FFF7D1BB97F8DC030028C8
:105810007FF4A8AC2F2087F8E603012076E0012072
:1058200087F8D6032C20CAE0002087F8D6032B2067
:10583000C5E01420FFF7BABB002078626248FFF78A
:10584000B9F96249FCF774FF6149FCF7A3FFB8613D
:1058500097F8B813032900F22781FFF718F9DFE85A
:1058600011F0260121011C011F013C6A5B49FFF771
:1058700026FA002800F0D780FFF71AF9D6E03C6A34
:105880005149FFF785F9002800F0F1805649FFF7EC
:1058900082F9EFE00120D7E90A4187F8DC034D489F
:1058A000FFF79EFA0146FFF776F95049FFF7DEF958
:1058B0004F4900281CBF0024C4F2C8242046FCF72E
:1058C000A7FF00281CBF0024CCF2C824BC62FFF74D
:1058D00049BCFFF743FA14D10C20FFF767BB97F8D8
:1058E000E103FFF745FA38BF032041E097F8E303EF
:1058F0000138010608BF032012E0FFF72FFA00F07D
:10590000F18401287FF42EACFFF749F887F8DC0317
:10591000FFF728BC97F8E303FFF7D7F988BF01200A
:1059200087F8E303C0B2032800F0C584022800F022
:10593000C084012804BF012087F8E203FFF712BCEE
:1059400097F8E5030138010608BF032022E097F825
:10595000DF030130C1B2042988BF012087F8DF03CB
:10596000FFF700BC97F8E103FFF7AFF988BF02200B
:1059700087F8E103C0B2032800F04B8302287FF4CC
:10598000F1AB022000F046BB97F8E503FFF79DF965
:1059900088BF012087F8E503C0B2032800F099848E
:1059A000022800F08D8401287FF4DCAB0120002167
:1059B00000F088BC15203071392000E0022087F803
:1059C000E603FFF7CFBB00BF000054430000A04038
:1059D0000000104100007F4300004842000069447D
:1059E00000007D43000024C2000080BF0000C842C8
:1059F0000000C8C200000020CC17002008010020D1
:105A0000812954D11920FFF73CBB0020F861984848
:105A10009849B861FCF78CFE9749FCF7BBFEFEF78E
:105A2000E2FF38620BE0002078629448FFF7C2F88A
:105A30009149FCF77DFE8F49FCF7ACFEB86197F801
:105A4000B813032930D8FFF722F8DFE801F0302B34
:105A500026290020F8618A488649B861FCF768FE6B
:105A60008549FCF797FEFEF7BEFF38620BE0002089
:105A700078628448FFF79EF87F49FCF759FE7D491C
:105A8000FCF788FEB86197F8B81303290CD8FEF725
:105A9000FEFFDFE801F00C07020507F1900001E0CE
:105AA00007F1940078490160002087F8B8031620B8
:105AB0003071DFF898482046FDF7BFF801462046D0
:105AC000FDF716F80138092800F27281DFE810F0BE
:105AD0000A002300700170014B006B007F0013006F
:105AE0002C003C00FEF792FF7CD1FFF72BF914BF8E
:105AF0000120052026E0DFF8400D90F82B1000294A
:105B000040F05681012180F82B10FEF77FFF40F016
:105B1000798000207FE0FEF779FF5ED1FFF712F970
:105B200014BF022006200DE097F8E60300F0FE0007
:105B3000022840F03B8197F8C9030238B0FA80F0A0
:105B400040098000F07031E197F8E60300F0FE00B4
:105B5000022840F02B8197F8C9030321022808BFCF
:105B60000721F17022E197F8E603A0F1230106294D
:105B70003ED9811E0229C0F019811B2800F0C28085
:105B80002F2800F0CA80372800F0BE80392840F066
:105B9000A98097F8C603002800F03782012840F05A
:105BA0000581032032E2FEF731FF40F001813749E1
:105BB000FF22C7F8BA133449C7F89C10DFF8781CE5
:105BC000FEF70AFF08BF0321FFF761F8F0E0DFF8F6
:105BD000680C002180F82B10EAE0411F16291DD81F
:105BE0000320E2E0411F162900F259800220DCE088
:105BF000DFE801F07A780478047804002320FEF7C7
:105C000078FFD3E0411F372901D3812804D197F8C9
:105C1000E80308B9042030710120C8E01D381A28B3
:105C200000F2C4800FF21001D1E810F0CC17002070
:105C3000080100206C0000205A00C000BE00C00017
:105C4000BC00C0003200C0003002C0004A02C000E8
:105C50003702C000AA00AF00B400C0002B02C00091
:105C6000A800C000A600C000C000C000A40000BF83
:105C70000000FA43000010410000A0400000694409
:105C80000000C8420000544300007F43E803E803DB
:105C900097F8DF030138010608BF042044E21D38ED
:105CA0001A2800F28380DFE810F01B0081007F00DB
:105CB00081007D00810038028100120281002302F0
:105CC0008100420281006B00700075008100FF01BD
:105CD000810069008100670081008100810065000A
:105CE000092062E0012060E097F8DF030138032813
:105CF0005CD8DFE810F00400C3019701BD01FFF795
:105D000019F853E0042050E097F8DD03012800F073
:105D1000788100284AD1172078E197F8DC03012820
:105D20000AD10220B9693A6A87F8DC03C048C7E99A
:105D30000B10C7E90D2039E00120D7E90A4187F8A7
:105D4000DC03BB48FFF74CF80146FEF724FFB949D6
:105D5000FEF78CFFB84900281CBF0024C4F2C824F9
:105D60002046FCF755FD00281CBF0024CCF2C824B7
:105D7000BC621BE0172018E0142016E0132014E08A
:105D8000012087F8D6032C2040E1002087F8D603B5
:105D90002B203BE197F8DC0340B92F2087F8E6037E
:105DA00001208AE10F2000E00A20307100203072CB
:105DB000F078072800F2C480DFE800F0047632496A
:105DC0001B8BA0604FF47A709C49FEF748FE9C49FB
:105DD000FEF78BFF00281CBF0024C4F22034FEF71E
:105DE00097FE00F2A880FEF752FEDFE801F0A7A2BE
:105DF0009DA04FF47A709149FEF72BFE9049FEF773
:105E0000D3FD18B98E4C0020C7F8C000FEF78FFEF6
:105E100000F29180FEF73BFEDFE801F0908B86896F
:105E20004FF47A708749FEF71AFE8449FEF708FF9F
:105E300000281CBF0024C4F2A004FEF769FE00F293
:105E40007A80FEF724FEDFE801F079746F724FF478
:105E50007A707D49FEF703FE7849FEF7F1FE0028CF
:105E60001CBF0024C4F2A004FEF752FE00F26380BF
:105E7000FEF70DFEDFE801F0625D585B4FF47A70CB
:105E80007149FEF7E6FD6D49FEF7F0FE18B96B4C5F
:105E90000020C7F8C000FEF74AFE4CD8FEF7F7FD19
:105EA000DFE801F04C474245FEF76DFDFEF7D7FDF8
:105EB0006349FEF71AFF00281CBF0024C4F22034F7
:105EC000FEF726FE37D8FEF7E2FDDFE801F03732B5
:105ED0002D30FEF758FDFEF7BCFD5949FEF764FD75
:105EE00018B9574C0020C7F8C000FEF720FE22D892
:105EF000FEF7CDFDDFE801F0221D181B4FF47A708C
:105F00005049FEF7A6FD4D49FEF7B0FE18B94B4CBF
:105F10000020C7F8C000FEF70AFE0CD8FEF7B7FD58
:105F2000DFE801F00C07020507F1900001E007F13E
:105F300094003F490160002087F8B8030820F07002
:105F4000708901387081000409D14FF47A70708132
:105F5000DFF8E408C16DC7F8B0100021C165DFF8B3
:105F6000D858287888BB102001F08CFDA887A88F0E
:105F7000FCF748FB354A364BFCF7BDF9354BFEF7CD
:105F8000D2FC354A354BFCF70FF9354A354BFCF757
:105F900024FA354BFEF7C4FCFCF702FD33490446F6
:105FA000B864FCF7C5FB2549FCF7F4FBFEF71BFDC5
:105FB000E549F864FEF7ECFD38B920460021FCF70E
:105FC00027FC10B901203C602870286EE04C01309D
:105FD00028662069804794F83500012809D194F893
:105FE000340018B1013884F8340002E0022084F84B
:105FF000350094F8440010B1013884F84400BDE83D
:10600000F08115203071392000E0022087F8E60386
:10601000CCE6032087F8E003FFF7A4B8FEF796FE6E
:10602000FFF7A0B8FEF792FEC0E60B20FFF73BB9E2
:1060300000007F430000C8420000C8C20000A0402A
:1060400000002043000080BF0000A0C052B81E85A1
:10605000EB510A400000303F295C8FC2F528F4BFA5
:1060600033E197FA7953713F000018400000104166
:106070000B20C4E5FEF756FEFFF774B8FEF752FE9C
:1060800094E6FEF76BFE13D10C208EE697F8E10341
:10609000FEF76EFE38BF03201FE097F8E5030138D6
:1060A000010608BF032048E0FEF758FE00F02F81EC
:1060B00001287FF47BAEFEF772FC87F8DC0375E6FF
:1060C00097F8E3030138010608BF032016E097F8AC
:1060D000E103FEF7FAFD88BF022087F8E103C0B2B2
:1060E000032800F0FB8002287FF460AE0220F6E077
:1060F00097F8E303FEF7E9FD88BF012087F8E30383
:10610000C0B2032800F0FB80022800F0EE800128D6
:1061100004BF012087F8E20348E697F8DF03013067
:10612000C1B2042988BF012087F8DF033EE697F853
:10613000E503FEF7CAFD88BF012087F8E503C0B27A
:10614000032800F0E080022800F0D18001287FF4CD
:106150002DAE01200021CCE097F8D603002800F0F6
:10616000D880012840F0D8802C21D3E097F8D803BC
:10617000012840F0818001207CE0312087F8E6038F
:1061800097F8D303FFF7BFBA97F8D503012898BF54
:1061900087F8D3031120FEF774BFFEF700FC87F8E1
:1061A000DC0397F8C90301287FF481AC91480121F1
:1061B000A0F82F104FF47F4077E0FEF7CFFD00F0FE
:1061C000AF8001287FF473AC0220AAE0212087F879
:1061D000E60397F8D003FFF74EBA1F2087F8E603CF
:1061E00097F8CD03FFF7EDB93B20FEF74ABF352006
:1061F000FEF747BF042087F8DF032320FEF741BFE7
:1062000097F8CC03012800F0908000287EF438AF86
:10621000FEF798FD40F0918000208AE097F8DB03BC
:10622000012898BF87F8D9031320FEF72ABF33202F
:1062300087F8E60397F8D903FFF75FBA002087F8DD
:10624000DD033720FEF71DBF97F8D203012898BF62
:1062500087F8D0030920FEF714BF97F8CF03012871
:1062600098BF87F8CD030720FEF70BBF97F8D80338
:1062700010B9002087F8D6030D20FEF702BF1520C5
:10628000FEF7FFBE97F8DC0300287FF410AC0F2068
:1062900087F8E603574890F82F1001297FF407ACE0
:1062A0000021A0F82F104FF60170A7F8C903FFF7DF
:1062B000FEBB022000E0032087F8E203FEF752BF96
:1062C0000220012187F8E4034A4880F82C10FEF7E9
:1062D00049BF032087F8E403FEF744BF032087F893
:1062E000E00363E50B20FEF761BE022008E0022018
:1062F000012187F8E4033F4880F82C1056E503207D
:1063000087F8E20352E5032087F8E4034EE50B200B
:106310004BE52B2187F8E61387F8D803FFF7C7BBB7
:10632000012087F8DC03FFF7C2BBFEF70BFD06D1A7
:10633000012087F8CB03FEF7A3BE002000E0012078
:1063400087F8C903FEF79CBE00004842CC0000203D
:10635000880100201848C16941F08051C161174986
:106360000A7842F004020A70C16921F08051C161CB
:10637000016841F00101016001688907FCD54168AD
:1063800021F003014160416811F00C0FFBD101685D
:106390000B4A114001600021416041F61071C16259
:1063A0004FF4801101634FF41F01816005484FF0E5
:1063B00000610160704700BF001002405070004053
:1063C000FFFFF2FE08ED00E0B0B5094C6068800701
:1063D0000CD52068800709D5064D4FF07E51E86D39
:1063E000FCF74EF9E8656FF002006060B0BD00BFD9
:1063F0000C4C0140080100202DE9F04F85B0B34F4F
:106400003869C00700F05F81DFF8408998F8E90338
:10641000012811D1DFF8209499F8120001280FD13A
:10642000DFF83C4BAA4D666D29463046FCF71AFA58
:1064300068B965652E460AE00024C8F840402CE1A2
:10644000A44EDFF81C0B4FF08141C0E914160096F2
:10645000D8F81860A049FEF785FC834698F8C90370
:10646000012818BFB346D9F864005946FCF708FA6A
:1064700000287ED10025CA46B94698498DF80B50B0
:10648000ADF808508DF80750D8F898703846FCF7EA
:10649000BFF904465846FCF72AFA002C06464FEA94
:1064A000900415D14A2C8DF8075033D864204F46FC
:1064B0000021D146ADF80800DFF88C03FEF7F6FBAB
:1064C00013294CD8FEF7EDFA49D2FEF74DFAF5E75D
:1064D00082493846FCF7C6F9002568BB38460021DA
:1064E000FCF796F94F46D146E0BB00204A2C8DF8C8
:1064F000070024D864200021ADF80800D148FEF739
:10650000D5FB132900F26081FEF7CBFA27D2FEF704
:106510002BFAF4E74FF496704F461421D146ADF8AC
:106520000800C948FEF7C2FB272918D8FEF7B9FAB8
:1065300015D2FEF719FAF5E74F46D14612E04FF4AF
:1065400096701421ADF80800BE48FEF7AFFB27296E
:1065500005D8FEF7A6FA02D2FEF706FAF5E79DF88F
:106560000B10455C68B2C9F864B0FCF7B2F9C8F822
:10657000D000B64E758D092D16D896F82C0001F076
:1065800081FAFCF7AFF946F825000446308D013555
:106590007585FCF7A7F90146FEF7FDFAFCF7A7F9A8
:1065A000A9B2B0FBF1F10CE0308D0A24B0FBF4F19C
:1065B000451A96F82C0001F065FA284481B2B1FB27
:1065C000F4F130858808FCF78DF9D8F82810D8F850
:1065D000D040C8F80000FCF7A5F82146FCF750F8B9
:1065E000064698F8C90302280DD194480021C166D7
:1065F00081660166C165A9F84C1089F81210C8F8C7
:10660000401081652EE098F8C20318B198F8D913AC
:10661000012919D18E495846BA46FCF731F8074688
:1066200030463946FCF71EF930B98A49FEF74AFB75
:10663000FEF76EFB002853D030463946FCF712F9BE
:1066400038B10025574615E0012808BF002909D1B7
:10665000CBE78049FEF736FBFEF75AFB574608B1F9
:10666000854D07E0D8F84040204600210025FCF782
:10667000F9F810B92C46C8F8405098F8C40360B136
:106680006E480024C46684660466C465A9F84C405C
:1066900089F81240C8F84040846598F8EB0320B9A7
:1066A00020460021FCF7DEF810B90024C8F840406D
:1066B0002046FCF735F93864386840F0010038604E
:1066C0006FF00100386105B0BDE8F08F000C0040AC
:1066D00000401C4600007A46000048420000A041ED
:1066E0005D49FEF7EFFA01463046FCF7BBF830B9DA
:1066F0005A49FEF7E7FAFEF70BFB002866D00020A8
:10670000A9F84C0089F8120058463146FCF70AF8FF
:106710004A4F3866386EB96EFBF7B2FFB866554D12
:10672000B86EFEF703F900B9BD66B86E002100240B
:10673000FCF798F800B9BC66D7E91354386EF96DC8
:10674000FBF7F0FF786620463E6EB96EFBF7F0FF70
:10675000396F0490039104980399FCF759F808B92C
:10676000039804900498039981F00041FCF76CF8B9
:1067700018B9039880F00040049028463146FBF792
:10678000D7FF0499FBF77CFF0446796E0098FBF76E
:10679000CFFF2146FBF774FFF866386EF865F86E98
:1067A000796FFCF735F808B9786FF866F86E796F8D
:1067B00081F00041FCF748F808B90020F866FC6E4B
:1067C0005746C8F840404FE70025CBE6B9F84C00E3
:1067D0000130A9F84C0080B23C2895D3204900989C
:1067E000FBF74EFF164F04463946FCF73BF818B14D
:1067F00012480094446518E0104D286D6F65FCF751
:10680000BCF8184A184BFBF7CFFC184B0022044683
:106810000F46FCF743F820B120463946FCF7C0F894
:1068200000E01348286506480090012089F812000E
:106830000020A9F84C0067E708010020880100202B
:1068400000401C4626D00108ECCF0108040E0020B1
:106850000000C8420000C8C20000A0400000A0C064
:106860000000FAC49A9999999999B9BF0000084013
:106870000000404000C82F47007F3B472DE9F04112
:1068800002FB03F4069D00264FEA4408DFF8BC44EF
:10689000023D94F8D643012C00F08B80002C40F090
:1068A00028827F2D00F22582DFE815F0800040016C
:1068B000320176012302840123028C0123029C0110
:1068C0002302B401230280012302900123029201DA
:1068D0002302AE01230294012302780123027401F2
:1068E0002302B6012302AA0123027A0123029601A0
:1068F00023029E0123027C012302A2012302340110
:106900003601A0012302C0012302B0012302B80115
:106910002302A4012302A601230286012302AC0163
:1069200023025C012A0144016E012302B201230209
:10693000BA0123028E01230226012C0138015201E3
:1069400012012401BC0123022302A80170012302C9
:10695000820123022801180160015E011C01580117
:106960009801230272012302C20123026A01230259
:10697000640166015A0146014201300148012001CB
:10698000880123022302C40154016C0123024A013D
:106990000E017E0123024C01160168010A013C012F
:1069A0001A012302230210014E019A014FF4962688
:1069B0009FE17F2D00F29D81DFE815F08000B80097
:1069C000AA0064019B0166019B0156019B016801BD
:1069D0009B016A019B017E019B016C019B014A01A5
:1069E0009B0158019B015A019B014C019B016E01C7
:1069F0009B0170019B0180019B0182019B014E0163
:106A00009B015C019B0184019B0150019B01AC0037
:106A1000AE0072019B0152019B018C019B018E0112
:106A20009B015E019B0160019B0174019B0162015E
:106A30009B01D400A200BC0090019B0146019B0178
:106A400076019B0148019B019E00A400B000CA0092
:106A50008A009C0078019B019B017A0192019B01B5
:106A60007C019B01A0009000D800D6009400D000CB
:106A700086019B0144019B0188019B018A019B01C6
:106A8000DC00DE00D200BE00BA00A800C000980002
:106A900094019B019B019601CC009A019B01C200CD
:106AA000860054019B01C4008E00E0008200B40007
:106AB00092009B0140018800C60042019F4E18E1F0
:106AC000A64C04F5487614E1A84E12E1A04E10E160
:106AD000BD4C04F59C660CE1A14E0AE1B44C02E009
:106AE0009D4E06E1B14C04F5196602E1A34C04F594
:106AF000E176FEE0B34EFCE0B44EFAE0AC4EF8E0D6
:106B0000B84C22E0B14C04F5BD66F2E09C4EF0E0DA
:106B10008B4EEEE0BD4EECE0BB4EEAE0AB4C04F534
:106B20003D66E6E08D4C04F5C866E2E0854EE0E0A7
:106B3000944EDEE0AA4EDCE0934EDAE08F4ED8E0D1
:106B40008B4ED6E0874ED4E0814C04F5E146D0E090
:106B50009D4ECEE0884C04F55256CAE0924EC8E0F5
:106B60008A4EC6E09F4EC4E0904EC2E0904C04F5C1
:106B70009956BEE0874EBCE0854EBAE0774EB8E04D
:106B8000B94EB6E0B74EB4E0C14EB2E0BB4EB0E095
:106B9000B74EAEE0CE4EACE06B4EAAE0CD4EA8E0D4
:106BA000C84EA6E0C44EA4E0AD4EA2E0CE4EA0E09A
:106BB000B14E9EE0D04E9CE0B74E9AE06F4C04F58B
:106BC000617696E0CB4E94E0AE4E92E0C54E90E0FA
:106BD000C34E8EE0C04E8CE0B94E8AE0A54E88E0F0
:106BE000C64E86E0C24E84E0B44E82E0B04E80E0F5
:106BF000B04E7EE0AA4E7CE0A84E7AE0A04E78E04F
:106C0000B14E76E0A34E74E0B44E72E0A64E70E052
:106C10009E4E6EE0B54E6CE0AC4E6AE0A14E68E070
:106C2000994E66E0674C04F5527662E09F4E60E054
:106C30008E4E5EE0504C04F50C565AE0454E58E03E
:106C4000864E56E0564E54E0634E52E0604E50E0A1
:106C50007A4E4EE0764E4CE0704E4AE06C4E48E084
:106C6000674E46E0404E44E0794E42E0724E40E0CE
:106C7000704E3EE0684E3CE05E4E3AE05C4E38E0DE
:106C8000594E36E0744E34E0724E32E06F4E30E0D2
:106C90006D4E2EE06A4E2CE0644E2AE0624E28E0F3
:106CA000584E26E0514E24E04A4E22E0444E20E069
:106CB000424E1EE03F4E1CE0624E1AE0594E18E074
:106CC000574E16E0534E14E0364E12E0334E10E0AD
:106CD000314E0EE0494E0CE0474E0AE03F4E08E0D0
:106CE000354E06E0244E04E0234C04F58C5600E0BB
:106CF000204E02440B44FDF7ECFF814D3146B8F1C4
:106D0000000F08BFBDE8F0814646B8F5806F284601
:106D10000F4628BF4FF48066324603F075FA002410
:106D2000B44206D2285B00BA000CFCF73DFA0234EC
:106D3000F6E7A8EB0608F119E1E700BF0481B70008
:106D4000002F0D0080EF0800806E1100CC1700208E
:106D50006818BC0084C0BB00104DB700ECEEB60054
:106D600064DDB600DCCBB600E897B600D25FB600B3
:106D7000A456B600F406B600E47AB500E065B500A6
:106D80000043B5002020B50040FDB40060DAB40037
:106D900080B7B400A094B4009A7CB4008E4CB400C8
:106DA000A019B400D0E3B3003CC0B30000AEB30000
:106DB0005091B3005669B3006219B30088B3B200B2
:106DC0009894B2006072B200386AB2008859B2007A
:106DD0006E9CB1003A22B00006A8AE000893AD0048
:106DE000B237AD00C0C3AC0050E7AA00CC6BA7001F
:106DF000A42DA4007CEFA00054B19D002C739A0038
:106E000004359700DCF693008802910048AD8F00AE
:106E10003EDB8D002A378A001693860002EF82003F
:106E2000E47D7F00BC3F7C00940179000023730067
:106E300000A46A000025620000A659000027510046
:106E400000A848000029400000AA3700002B2F00AE
:106E500000AC2600002D1E0000AE15005815C30022
:106E6000F463B60044B7B5009464B4008834B40049
:106E7000B8FEB300E8C8B3005C41B30068F1B200EB
:106E800078D2B20054DFB0002065AF00ECEAAD006C
:106E9000243BAD00E00AA900B8CCA500908EA2006A
:106EA00068509F0040129C0018D49800F0959500FF
:106EB000C857920034098C00206588000CC18400FA
:106EC000F81C8100D0DE7D00A8A07A0080627700E7
:106ED00080E36E008064660080E55D00806655009A
:106EE00080E74C008068440080E93B00806A330002
:106EF00080EB2A00806C220080ED1900E838C10088
:106F000000020020BCB5154C2068E06880060CD556
:106F10002068800609D56168114D05F12800C9B2C5
:106F200003F0FAF84FF48270A886E068400610D5A6
:106F3000206840060DD50A4D6FF040000DF10701A5
:106F4000206005F1380003F0D4F818B1002085F86E
:106F50004500BCBD9DF807006060BCBD0038014025
:106F600088010020FEE700000648BFF34F8F064A65
:106F7000016801F4E06111430160BFF34F8F00BF6E
:106F8000FDE700BF0CED00E00400FA0510B500EBD2
:106F900040010A284FF00702084B28BF1E3902FAA9
:106FA00001F14FF00C0238BF1022D4582143D150C8
:106FB000596B21F01F010843586310BD00240140A4
:106FC0000148102101607047141C01400148102144
:106FD00001607047101C014018B3F0B50844511A05
:106FE000BE4A4B1C990802F5A2640D462DB150F81B
:106FF000046B013D36BA40C4F8E713F003030ED02A
:10700000002418250026A34205D0075D0134AF40B7
:10701000083D3E43F7E702EB8100C0F81065BDE88C
:10702000F0407047AD4901F5A262044918B108CAA1
:1070300001380B60FAE70868704700BF0030024073
:1070400032490A68C2F38103314AF0B5DFE803F040
:1070500002380A380B6D9B0532D5CB6A9B0148BFBD
:107060002D4A2DE00B688C6A1B0C002C13D40C6885
:107070000D68C5F34175C4F383440DB90F2C43D19A
:107080002D0101352C44DB0702D00B689B0300D592
:10709000204A624314E08C6A8D6A8E6ADB071D4BBE
:1070A000C4F30314C5F3082506F0070603D00F68E0
:1070B000BF0358BF134604FA06F26B43B3FBF2F268
:1070C000026016A40B68C3F30313E35C174CDA40A9
:1070D00042600B68C3F30223E35C22FA03F3C3604C
:1070E0000B68C3F3C223E35C0424DA4082600B68BC
:1070F000096804EA9363C1F3813119440CA3595C14
:10710000B2FBF1F10161F0BD0225BBE704100240C2
:1071100000127A0000093D00006CDC020000000053
:10712000000000000102030406070809E4CF01087B
:1071300002040608020C08107CB5044600204FF635
:10714000FF75C6B2152E09D8301900F087FCADF8CE
:107150000600B01CBDF80610A942F2D1BDF8060029
:107160007CBD00000B4A5368DB0103D4536843F035
:10717000807353600823032808BF102301FA03F02B
:107180006FF47F4108BF6FF47F0113681940084313
:1071900010607047A000024002684BF6EF731A407F
:1071A00002600A8903681A4302604A7C036802F09D
:1071B000030223F4405343EA02320260CA7B0368AD
:1071C00002F0030223F4406343EA822202608A7BD6
:1071D000036802F0030223F4407343EA02220260D0
:1071E0004A7B036802F0010223F0800343EAC212E3
:1071F00002600A7B036862F3861303600A7C0368FB
:1072000062F3451303604A8942600A6882604968F4
:10721000C1607047016821F0010101600021016037
:1072200041608160C16040F2FF4100EA01020B4908
:10723000B2F5816F04D3D208902A0ED801F580618F
:1072400000F0FC0014220838B0FBF2F00F2280009E
:1072500002FA00F00A681043086070470400024018
:10726000064907480A7822B94CF6CC42026001224E
:107270000A704AF6AA210160704700BF000E002084
:107280000030004010B5154C08480949FDF755FC81
:10729000FDF713FCFDF771FB1349FDF7BDFC84F806
:1072A00023141620BDE8104003F068BA01000A1844
:1072B000D103030810B5094C09480A49FDF73DFC04
:1072C000FDF7FBFBFDF759FB0749FDF7A5FC84F82B
:1072D00023141620BDE8104003F050BAB40E00206D
:1072E00001000A1DD10302080830024010B5214CEC
:1072F000226842F00102226001804FF4801000F009
:1073000017F8FDF701BB00BF08480168C9071CBF9B
:10731000002070470168490744BF0120704700689A
:10732000C0064FF0020058BF032070470C200240F7
:10733000B0B50446FFF7E8FF0025013C45F1000128
:1073400018B911B1FFF7E0FFF7E7B0BD10B5094C70
:10735000216841F0020121606060206840F0400037
:1073600020604FF08040FFF7E3FF206820F002002C
:10737000206010BD102002402DE9F047DFF8709822
:1073800099F8EB0308B1BDE8F087DFF8408998F879
:1073900001000328F7D8DFE800F002DD09B599F80D
:1073A000E903002800F0FA810120F3E1664E98F825
:1073B0000C10664FDFF844A606F1100011F001052D
:1073C00008BF07F10E0099F8C613D04706F1120066
:1073D000002D08BF07F1100099F8CD13D04706F132
:1073E0001400002D08BF07F1120099F8D013D04700
:1073F00006F11600002D08BF07F1140099F8D61306
:10740000D04706F11804002D08BF07F11604D9F87B
:107410002800FBF76CFA01462046D04706F11A0017
:10742000002D08BF07F1180099F8D313D04706F1D3
:107430001C00002D08BF07F11A0099F8D913D04796
:1074400006F11E00002D08BF07F11C0099F8C913B2
:10745000D04706F12000002D08BF07F11E0099F863
:10746000E013D04706F12200002D08BF07F12000ED
:1074700099F8E213D04706F12400002D08BF07F168
:10748000220099F8E413D04706F12604002D08BF26
:1074900007F12404FDF730FC01462046D04799F857
:1074A000C60388F8020099F8CD0388F8030099F81C
:1074B000D00388F8040099F8D60388F8050099F8F5
:1074C000D30388F8060099F8D90388F8070099F8DB
:1074D000C90388F8080099F8E00388F80900D9F88A
:1074E0002800FBF704FAA8F8460099F8E20388F8A8
:1074F0000A0099F8E40388F80B00FDF7FDFBA8F8F3
:10750000480044E1104898F80C2010492830D20770
:1075100008BF01F12600B8F84A10FFF7E7FE0C4853
:10752000C16841F08001C160012088F80100B8F80D
:107530004A000130A8F84A0098F80C00013088F899
:107540000C00BDE8F08700BF00F0010802F8010858
:1075500004200240B8F83E00FBF7C4F90146D9F810
:107560001800FBF78DF9002800F08C80B8F8400077
:10757000FBF7B8F90146D9F89800FBF781F9002824
:1075800000F08080B8F84200FBF7ACF90446D9F867
:107590006800FDF714FB002874D0B8F84400FBF72E
:1075A000A1F90546D9F88000FDF70CFB002869D049
:1075B000D9F86C00FDF703FB002863D0D9F88400EC
:1075C000FDF700FB00285DD0D9F87000FDF7F7FA51
:1075D000002857D0D9F88800FDF7F4FA002851D0D8
:1075E00099F8C60398F8021081424BD199F8CD035F
:1075F00098F80310814245D199F8D00398F8041007
:1076000081423FD199F8D60398F80510814239D1CB
:10761000B8F84600FBF766F90146D9F82800FBF7F1
:107620002FF978B399F8D30398F80610814229D13D
:1076300099F8D90398F80710814223D199F8C90322
:1076400098F8081081421DD199F8E00398F80910C4
:10765000814217D199F8E20398F80A10814211D1BA
:1076600099F8E40398F80B1081420BD1B8F8480060
:10767000FBF738F90146D9F8BC00FBF701F90028FF
:107680007FF481AEDC48DE490160DE490160D94902
:1076900098F80C000C468A4610F0010608BF04F565
:1076A00000642046FFF752FED9F81800FBF71FF9D7
:1076B000D24FFDF7C8FA0AF10204002E04BF4FF6BC
:1076C0000204C0F60104D9F89800FBF710F9FDF7A1
:1076D000BAFA0AF10404C64D002E08BFAC1CD9F852
:1076E0006800FBF704F9FDF7AEFA0AF10604002E74
:1076F00008BF2C1DD9F88000FBF7F9F8FDF7A3FAB5
:107700000AF10804002E08BFAC1DD9F86C00FBF785
:10771000EEF8FDF798FA0AF10A04002E08BF05F109
:107720000804D9F88400FBF7E2F8FDF78CFA0AF1B7
:107730000C04002E08BF05F10A04D9F87000FBF70D
:10774000D6F8FDF780FA0AF10E04002E08BF05F105
:107750000C04D9F88800FBF7CAF8FDF774FAD9F8D9
:107760001800D9F87040D9F88850D9F89860FBF71C
:10777000BEF8A8F83E00FDF7F8FAA8F84000FDF7BB
:1077800033FAA8F84200FDF758FAA8F8440098F830
:107790000100013088F80100BDE8F087EA4C20467E
:1077A000FFF7CAFC4FF6FF75A84210D02046FFF73E
:1077B000C3FCA8420BD004F1280000F04FF90446A6
:1077C0008B48263000F04AF9844205D80DE0204667
:1077D000FFF7B2FCA84202D000F068F936E004F5E9
:1077E0000060FFF7A9FCA84202D000F0AFF92DE03D
:1077F00085488749884B874A884C0025012689F8A7
:10780000D65389F8D06389F8CD5389F8C65389F8DF
:10781000D95389F8D363C9F8285089F8E46389F803
:10782000E26389F8C953C9F8BC007848C9F8181050
:10783000C9E92024C9E91A31C9F89800C9F88800B3
:107840007748C9F87000022089F8E003D9F8184099
:107850007449FDF79DF918B96B49FDF7B6F910B9F0
:107860006B48C9F81800D9F898406F49FDF790F9AE
:1078700018B96E49FDF7A9F910B96448C9F898001C
:10788000D9F8BC406849FDF783F918B96749FDF795
:107890009CF910B95C48C9F8BC00D9F86840614946
:1078A000FDF776F918B95849FDF78FF910B95A481C
:1078B000C9F86800D9F86C405A49FDF769F918B958
:1078C0005149FDF782F910B95148C9F86C00D9F84F
:1078D00070405449FDF75CF918B94B49FDF775F94B
:1078E00010B94F48C9F87000D9F880404E49FDF7EB
:1078F0004FF918B94D49FDF768F910B94548C9F86D
:107900008000D9F884404849FDF742F918B9474941
:10791000FDF75BF910B94148C9F88400D9F88840EF
:107920004149FDF735F918B94049FDF74EF910B94D
:107930003648C9F8880099F8C6033349022824BF9D
:10794000002089F8C60399F8CD03022824BF00203F
:1079500089F8CD0399F8D003022824BF012089F8C3
:10796000D00399F8D603022824BF002089F8D60353
:10797000D9F82840FDF70CF918B92D49FDF725F97C
:1079800010B90020C9F8280099F8D303022824BFB1
:10799000002089F8D30399F8D90310B1002089F8A1
:1079A000D903FDF7A5F924BF002089F8C90399F888
:1079B000E003043810F1030F9CBF022089F8E003B4
:1079C00099F8E203043810F1040F9CBF012089F8F4
:1079D000E20399F8E403043810F1040F9CBF01207E
:1079E00089F8E403012089F8E903BDE8F08700BFC6
:1079F00002F8010800F0010804200240ED720008BE
:107A000023016745AB89EFCD0000C842000020424A
:107A10000000BE430000A0410000AF430000F04161
:107A20000000C8430000FA43000020430000A040CB
:107A30000000C8C210B5074C0749206840F001009B
:107A40002060A64801604FF48010FFF771FCFCF73E
:107A50005BBF00BF10200240384B544181B0016829
:107A6000D0F801008DF800108DF801009DF801009C
:107A70009DF8001041EA0020ADF80200BDF80200B8
:107A800001B0704710B5084C6FF002012160FFF79C
:107A90007DFAA06840F48000A06020688007FCD5D3
:107AA000E06C80B210BD00BF0024014070B5264CD0
:107AB0004E4D2046A847FAF715FF4D4EB061A01C69
:107AC000A847FAF70FFFC6F89800201DA847FAF755
:107AD00009FFB066A01DA847FAF704FFFDF7ACF94F
