:020000040800F2
:10200000C02F002085210008AF480008712D00086E
:10201000AD480008472A00083D6F00080000000096
:102020000000000000000000000000003F4E00081B
:10203000492A0008000000003D4E0008414E0008FB
:102040009F2100089F2100089F2100089F21000870
:102050009F2100089F2100089F2100089F21000860
:102060009F2100089F2100089F2100089F21000850
:102070009F2100089F2100089F2100089F21000840
:102080009F2100089F2100089F2100089F21000830
:102090009F2100089F2100089F2100089F21000820
:1020A000A16300089F2100089F2100089F210008CC
:1020B0009F2100089F2100089F2100089F21000800
:1020C0009F2100089F2100089F2100089F210008F0
:1020D0009F210008DD6E00089F2100089F21000855
:1020E0009F2100089F2100089F2100080000000098
:1020F00000000000000000000000000000000000E0
:10210000000000009F210008D163000800000000CB
:102110009F2100089F21000800000000000000002F
:102120009F2100089F2100089F2100089F2100088F
:10213000000000000000000000000000000000009F
:102140000000000000000000000000009F210008C7
:1021500000000000000000009F2100089F210008EF
:102160000000000000000000000000009F210008A7
:10217000DFF80CD000F0A0F90048004745890008BE
:10218000C02F00200648804706480047FEE7FEE7CC
:10219000FEE7FEE7FEE7FEE7FEE7FEE7FEE7FEE717
:1021A0002D630008712100082DE9FE4F804681EA69
:1021B0000300C00F0C46009021F0004123F00045C1
:1021C000B8EB0200A94105D24046214690461C4684
:1021D0000B46024623F00040104347D0270DC7F3BB
:1021E0000A00C3F30A510290401A019040286BDAAA
:1021F000C3F3130040F4801B0098924620B10023E3
:10220000D2EB030A63EB0B0B01985946C0F1400275
:10221000504600F069F906460D4650465946019A67
:1022200000F081F910EB08006141002487EA1152A7
:1022300084EAE7731A4340D0009A62B3019A012AF4
:102240004FEA075215DC001B61EB02014FF0004220
:1022500002EA0752CDE90042001C41F580113246E6
:102260002B4600F081F903B0BDE8F08F40462146CF
:10227000F9E7001B61EB0201001C41F58013001817
:102280005B412018A2F5001747EB030140EAD57027
:10229000B6196D4111E06D084FEA360645EAC07582
:1022A0004FEA0752001B61EB0201001C41F580114F
:1022B00049084FEA30000019514132462B4603B01D
:1022C000BDE8F04F00F041B9009801224000002322
:1022D000D0EB020263EBE073009821464FEAE07412
:1022E000B8EB000061EB0401E9E783F000435BE732
:1022F00081F0004158E72DE9FE4F81EA030404F024
:10230000004421F0004100944FF0000B23F0004303
:1023100050EA01045ED052EA03045BD0C3F30A54CE
:10232000C1F30A552C44A4F2F3340194A0FB0254E7
:10233000C1F3130141F48011C3F3130343F4801379
:1023400001FB024400FB034E840A970A44EA8154CD
:1023500047EA8357A4FB076802958D0A05FB0785AA
:102360004FEA932C04FB0C542705029D4FEA0658B4
:1023700047EA1637B5EB08056EEB070C870E920E91
:1023800047EA811742EA8312A7FB0201B6EB0B0171
:1023900064EB00042B0D43EA0C335E1844EB1C5035
:1023A000DA465146E7FB0201C5F313044FEA0B334B
:1023B00043EA14534FEA0432019C43EA0603A4F1B2
:1023C0000C040294009CCDE900B400F0CDF803B0F9
:1023D000BDE8F08F00200146F9E72DE9F04D81EAD4
:1023E000030404F0004B21F0004514464FF0000AAE
:1023F00023F0004150EA050220D054EA01021DD02A
:10240000C5F30A570246C5F31303C1F31300C1F322
:102410000A5640F4801543F48013A7EB0608101BFE
:10242000D64608F2FD3873EB050002D308F1010827
:1024300001E092185B41B8F1000F03DA0020014679
:10244000BDE8F08D00204FF48011064684460EE072
:10245000171B73EB050705D3121B63EB050306433C
:102460004CEA010C49084FEA300092185B4150EAEF
:102470000107EDD152EA030012D082EA040083EA98
:102480000501084305D0101BAB4106D201220023F1
:1024900006E000224FF0004302E06FF0010253100B
:1024A0001AEB06004CEB085110EB0A0041EB0B0154
:1024B000BDE8F04D00F049B81CB509480090094846
:1024C00001900546009C06E0E06840F0010394E8B6
:1024D000070098471034AC42F6D3FFF74DFE0000DA
:1024E00028D0010848D00108202A04DB203A00FA4D
:1024F00002F1002070479140C2F1200320FA03F35B
:10250000194390407047202A04DB203A21FA02F058
:102510000021704721FA02F3D040C2F1200291401D
:10252000084319467047202A06DBCB17203A41FAA8
:1025300002F043EAE07306E041FA02F3D040C2F150
:102540002002914008431946704710B5141E73F1DC
:10255000000408DA401C41F1000192185B411A4363
:1025600001D120F0010010BD2DE9F04D92469B46AF
:1025700011B1B1FA81F202E0B0FA80F22032904655
:10258000FFF7B2FF04460F4640EA0A0041EA0B019A
:1025900053465A46084313D0114653EA010019D056
:1025A000C8F140025046FFF7AEFF05460E465046C2
:1025B00059464246FFF798FF084305D0012004E042
:1025C00020463946BDE8F08D0020054346EAE07616
:1025D0002C4337430A986305E40AA0EB0800002265
:1025E000FD0A44EA47540A3002D500200146E9E7D3
:1025F000010510196941DDE9084500196941BDE887
:10260000F04DA2E70EB540F2334102910021CDE931
:1026100000110A460B46FFF7A7FF03B000BD70B5D7
:10262000C1F30A5201F000450024C1F3130140F246
:10263000FF3341F480119A4201DA002070BD40F26C
:1026400033439A42A2F2334203DC5242FFF75BFF6C
:1026500000E090402C43F1D0404270BDD2B201E086
:1026600000F8012B491EFBD270470022F6E710B597
:1026700013460A4604461946FFF7F0FF204610BDF0
:10268000F0B480EA0102D40F4200B2EB410F02D253
:102690000246084611464A0042D0C30DDDB2C1F3DE
:1026A000C752AD1A202D35DAC1F3160141F40002EC
:1026B00004B15242C5F1200602FA06F12A41104443
:1026C000B3EBD05F23D0C4B1012DA0EBC35009DC24
:1026D000F0BC4FF0004202EAC352DBB200F500004A
:1026E00000F083B9400000F1807000EBC350A0F10E
:1026F000807040EAD170490009E0490841EAC071A0
:10270000A0EBC35000F50000400800EBC350F0BC44
:1027100000F062B96142012202EB4101001BF6E7C1
:10272000F0BC704781F00041AAE780F00040A7E7C5
:1027300080EA010210B502F00043400022D04A00B6
:102740001FD0010E01EB1261C0F35600C2F3560216
:1027500040F4000042F40002A0FB022000047F3994
:10276000140400D0401C50EA124001D44000491E1D
:10277000C2B20C0604EBD010401C4008802A02D0E4
:1027800003E0002010BD20F00100002900DA002045
:10279000184310BD30B480EA010202F0004530F069
:1027A000004221F0004013D090B1C30DD40DC2F30C
:1027B0001601C0F31600E41A41F4000140F40002CF
:1027C0007D34914201D3641C00E04900002C02DA00
:1027D00030BC002070474FF400000023914201D329
:1027E000891A034340084FEA4101F7D151B19142A0
:1027F00002D14FF0004105E002D24FF0010101E0AB
:102800006FF0010103EBC450284430BC00F0E4B881
:10281000002801DBC0F10040002901DBC1F10041CB
:10282000814201D80120704700207047002801DB59
:10283000C0F10040002901DBC1F10041814201D219
:102840000120704700207047002801DBC0F10040E4
:10285000002901DBC1F10041814201D30120704711
:1028600000207047002801DBC0F10040002901DB97
:10287000C1F10041814201D9012070470020704719
:10288000002801DBC0F10040002901DBC1F100415B
:10289000814201D1012070470020704730B5041EED
:1028A00071F1000404DB4FF00044404264EB01018D
:1028B000141E73F1000405DB1C464FF00043524226
:1028C00063EB0403801A994101D2012030BD00203E
:1028D00030BDC10F80EAE0700844CA07962300218A
:1028E00000F083B896230022114600F07EB800F075
:1028F000004220F00040C10DC0F3160040F400007B
:102900007F2901DA00207047962903DCC1F1960186
:10291000C84001E096398840002AF4D04042704710
:1029200020F00040C10DC0F3160040F400007F29E4
:1029300001DA00207047962903DCC1F19601C840F6
:102940007047963988407047C1F30A5210B5C1F3F9
:10295000130140F2FF3341F480119A4201DA002062
:1029600010BD40F233439A42A2F2334203DC52429A
:10297000FFF7C9FD10BD904010BD00F0004230F0DF
:1029800000400AD0C10D01F56071C0F3160042EAA3
:102990000151C208400711437047002001467047AB
:1029A00001F0004330B421F0004150EA010206D0AA
:1029B0000A0DA2F56072C1F31301002A02DC30BCDB
:1029C00000207047440F44EAC104C100E01830BC45
:1029D00000EBC250AFF300800029A8BF7047401C35
:1029E000490008BF20F00100704710B4B0FA80FC25
:1029F00000FA0CF050EA010404BF10BC704749B162
:102A0000CCF1200421FA04F411FA0CF118BF0121D1
:102A100021430843A3EB0C01CB1D4FEA00614FEAB1
:102A2000102042BF002010BC704700EBC350104480
:102A30000029A4BF10BC7047401C490008BF20F00B
:102A4000010010BC7047FEE7704700002DE9F84F09
:102A500041F6A309622A88460546DFF890A09B4606
:102A6000CDF8009028BF6222052A98BF0522C2F146
:102A70006400A62148436421424680B2B0FBF1F7CE
:102A80002846532107F153063346D0470A9831466A
:102A90000F220F230090681E84B2204603F0DAFE56
:102AA0006137284642464FF48073CDF800B039466E
:102AB000D047204653212A463346CDF80090D047D0
:102AC000204639462A4602F0AFF908F101005321A9
:102AD0003346CDF8009084B240462246D047404667
:102AE0003946224602F0A0F9BDE8F88F132F0008FE
:102AF000438E4FF6FF7293421CBF5A1C428670B53C
:102B0000CB1C0021062B24D8DFE803F00423142378
:102B10000823200002F020F804211AE0038C4186EB
:102B20009A4238BF012180F834104FF0010138BFBC
:102B300009210EE0038C41869A4238BF012180F8BA
:102B400034104FF0020138BF0A2102E002F004F80D
:102B50000321024612F8305F12F8093C12F8036CA8
:102B6000DCB202F8033C84F001033343B3FA83F38D
:102B70005B094DB1002B5ED0002280F83020C28569
:102B8000826280F82C2056E0458D6DB1013D45856F
:102B90002D0401D0002508E090F82C50012D03D120
:102BA000002101F0D9FF05210125BCB1002B42D045
:102BB000024632F8283F32F8104CA34239D3448BF6
:102BC000A3422FD290F82C3085F00104013B18BFAE
:102BD000012323432DD1838B43852AE0038D048B6E
:102BE000013303859BB2A3420AD12DB990F82C4042
:102BF000012C01D1062101E000F12C020124147006
:102C0000428B934217D3C38DC28B01339CB2B4FB6A
:102C1000F2F505FB1242002A18BF1A46C28508BF0A
:102C2000082108E0002180F83010C1851160117181
:102C3000072100201080084670BD2DE9F04701688B
:102C400082888B68816886898D680469818AA46816
:102C500005EA0607BD1B04EA010CB5FA85F5ACEBE5
:102C600001044FEA551E90F82450B4FA84F4640924
:102C700080F8264080F8274003EA0204A31AB3FA3A
:102C800083F34FEA531A837D1BB355452ED0B7EB20
:102C9000060918BF4FF0010990F82580B8F101032B
:102CA00018BF0123BD1BB5FA85F56D091D4394427C
:102CB0001FD165B1B8F1000F08BFB7423DD0A8EBF6
:102CC0000E02B2FA82F2520912EA090F3DD0012532
:102CD0001EE055450AD04FF0FF35B74280F825E099
:102CE00080F824A008BF0125944217D102200025B6
:102CF0001DE065B1B8F1000F08BFB74221D0A8EBC5
:102D00000E02B2FA82F2520912EA090F27D0FF2509
:102D10004FF0000E80F825E080F824A0EAB26FF0B2
:102D20000200012A08BF0320002A08BF02208C45A8
:102D300018BF054668B2BDE8F087FF254FF0010EC9
:102D4000E8E74FF0010E0125E4E787EA060288EA8A
:102D50000E031A43B2FA82F252095542DAE787EAC1
:102D6000060288EA0E031A43B2FA82F25509D1E745
:102D7000FEE700002DE9F84FDFF88CB007462A2067
:102D8000984692468946D8477C4C4FF40045380A0D
:102D90007B494FF480666560C4F8FC03F8B20E60AE
:102DA000C4F80068256065600F46C4F8FC034FEA6C
:102DB0001A200E6001F01FFE5FFA8AF00E6001F02B
:102DC0001AFE2B200E60C4F800682560D8474FEA31
:102DD000192065605946C4F8FC035FFA89F03E602B
:102DE00001F009FE4FEA18203E6001F004FE5FFA90
:102DF00088F03E6001F0FFFD3E60C4F80068256089
:102E00002C20BDE8F84F0847C531000870B5164CB6
:102E10004FF6FF724FF6FF7394F8380094F83A10AB
:102E2000002818BF40F2DF12002918BF40F23F13FC
:102E3000002000210025FFF79DFF94F838000128AD
:102E400011D168090E280ED8002694F83A000128FE
:102E500007D1B009042804D8002000F0A5F90136F4
:102E6000F3E70135E9E770BD080100202DE9FE4FC9
:102E70000C46A3EB010B111A05460029029101DD56
:102E8000012008E005D00298404202904FF0FF3048
:102E900001E000200290BBF1000F019001DD01264E
:102EA00007E019BFCBF1000B4FF0FF364FF0000BDE
:102EB000002602985F464FF000084FF000094FF0DF
:102EC000000A584588BF07461FFA88F08742B8BFF6
:102ED000BDE8FE8FA8B2A1B202460B46FFF74AFF3B
:102EE0000C9800F061F90AEB0B0008F10108B842F8
:102EF000C8BF34440299019A4944B942C8BF154435
:102F0000B0EB070AD8BF8246B1EB0709D8BF8946A4
:102F1000DAE72DE9F8438146501E154698460E46DD
:102F200082B2581E83B24846FFF724FF089CB0B215
:102F3000404528BFBDE8F8834F46B8B2A84204D246
:102F4000204600F031F90137F7E70136EFE70000DE
:102F500010B5002007F0E6F8A548A44A4FF4004158
:102F60004FF4006341601360D0F8F843C0F80038B4
:102F70000160102007F0D6F8A0B210BD1008014083
:102F8000141001402DE9F04F87B0119F1C46904668
:102F900000EB5702CB1901F083FE01203909109E86
:102FA0004FF0000B17F00E0F18BF00EB171101FBCD
:102FB00007F00690A8F120004FF4C8717D084FF08B
:102FC0000008C2B22D48059212FB010004902F4860
:102FD00000EB021003902B4800EB8210029028486F
:102FE00000EB022001900698804543D0502F16D068
:102FF000102F18D00598182F00EB400009D0202F73
:103000000FD0402F09D00C2F34D1214901EB800083
:103010000AE01D4901EB001006E0019804E0049865
:1030200002E0029800E0039840440BF108074FF0DB
:10303000000A90F80090BAF1080F13D029FA0AF0AC
:10304000C007204608BF304600F0AEF80BF1010B78
:103050001FFA8BF0B0FBF5F101FB150020B10AF16E
:10306000010AE8E7BB4601E04FF0000B119F08F1B1
:103070000108B8E707B0BDE8F08F00BF4C3B01087E
:103080004CDC00088CC40008BCB20008CCAC0008C2
:1030900058A800082DE9FE4F07460D98994692461C
:1030A0000E4600254FF00A084FF0000B4408032D90
:1030B00008BFBDE8FE8FC5F102000121020604D061
:1030C00001EB810101384900F8E7BAFBF1F0BBF1EF
:1030D000000FB0FBF8F101EB8101A0EB410105D13C
:1030E000012D03D8080410D04FF0010BDDE90C20AE
:1030F00041F030014B46CDE9002005FB0470CAB217
:10310000314601F011FC0135D1E7DDE90C10302228
:103110004B46CDE9001005FB0470314601F004FC7C
:103120004FF0000BEFE72DE9FC47DDF828809946CA
:1031300015460E4607464FF0000A4FEA58042A7813
:103140004AB1B8B231464B46CDE900A8FFF71AFFA5
:1031500027440135F3E7BDE8FC8700002DE9FE4F69
:103160001C469046894683465D0800260FF2300AC9
:103170000027072F08BFBDE8FE8F781EC0B20528C4
:103180000AD81AF800200BEB060049464FF6FF73E9
:10319000CDE9008401F0C8FB2E440137E9E700BF08
:1031A00056312E302E39000011494FF400424FF4B1
:1031B00080634A60C1F8FC030C480360C1F8003822
:1031C0000A60704710B50949094B4FF480524FF41B
:1031D00000440A605C60C3F8FC034FF48060086040
:1031E000C3F80008C3F800281C6010BD141001408B
:1031F000100801402DE9F04F95B0DFF8F0AB9AF8D8
:103200001C0001282BD0002841F0D682DFF8E09B7B
:1032100099F8E60302282BD1D9F8B040D44901F03F
:1032200031FD00286FD0D24901F0B4FC002840F0F5
:10323000B78099F8C003002840F0B2809AF82400C3
:10324000002840F0AD809AF8250001308AF825006A
:10325000C0B2032824BF0120AAF824006FE09AF826
:103260003000012808D1DFF8440E90F8D1031CE0AB
:1032700000208AF8240093E03D2000214FF4F072F2
:103280001E230090002003F0E5FA40F29F10082171
:1032900043F286121023FFF761FF0120DFF80C1EB6
:1032A0008AF83000FF2081F8D103DFF8008E98F80B
:1032B000D01388420FD03F20012908BF3E20009044
:1032C0004FF4C77006211522152303F0C3FA98F8AE
:1032D000D00388F8D10398F8C90398F8CA1381423B
:1032E00034D0012803D098F8CB13012929D17020BC
:1032F00003212A221823009040F2631003F0AAFA57
:1033000098F8C90320E09AF8230001308AF82300D6
:10331000C0B215280AD300208AF823009AF82200A8
:10332000013000F003008AF8220001E09AF8220040
:1033300000218AF82410DFE800F0022A262856200F
:1033400026E000218AF8301088F8CA0398F8E603CE
:103350004FF6FF7B00F0FE0102294FF6FF7140F0AF
:10336000718798F8C41398F8C5238A4200F0E28068
:10337000032900F2D980DFE801F002CFCBCD012094
:1033800088F8E703D0E0582002E0592000E05720F9
:1033900000904FF4D77028212422222303F05AFAF8
:1033A00099F8E80301280FD1DFF8040D81694A1E5E
:1033B0000029826108DC002189F8E8134FF4967136
:1033C0008161172089F8E6039AF8201099F8C6035E
:1033D00019B108BB99F8C2130CE0012101288AF841
:1033E00020100CD0C0B999F8C213012909D80220C5
:1033F00089F8E6030020022938BF012002E00320FB
:1034000008E0002099F8E61301F0FE01022903D13B
:1034100010B1022089F8E60399F8E60399F8E7234A
:103420004FF6FF71824200F0D580DFF8842C514BBB
:1034300089F8E703D1815049FF22C9E90433C9F86B
:103440003830C9F8303089F8B92389F8CE2389F8A3
:10345000D42389F8C7238AF81E20C9F81C10C9F89C
:103460005410C9F8081001F091FAC9F89C10C9F875
:103470004410C9F8A410C9E92311C9F8941099F8A7
:10348000C41309B189F8C523A0F11D01CAB2202ACD
:1034900004D300F17F02D2B2012A22D89AF8212067
:1034A00082B904201E214FF4F0724FF49173009002
:1034B000002003F0CFF901208AF8210099F8E603F3
:1034C000A0F11D01C9B2062904D3A0F12D01C9B292
:1034D0000D2911D800904F2046214FF4A172A52349
:1034E00076E00021009000204FF4F0724FF49173C9
:1034F0008AF821101E216BE0A0F12301C9B207292F
:103500004DD8009050203B2140F23F12BB235FE09A
:10351000462002E0442000E0422000907B207B21F6
:10352000EB22672303F096F998F8C41398F8E603A2
:1035300088F8C51302284FF6FF7140F0838698F88B
:10354000C003022804D0012818D0002840F03B8690
:1035500018200024342100224FF6FF73CDE90040EB
:1035600040F24510FFF796FDAAF8524000F02BBE3E
:103570000000A04200007A4400007F4398F8C20394
:10358000012802D198F8D90320B198F8C943022C38
:1035900040F0E1840020AAF8520000F014BEA0F12F
:1035A000810102290ED3A0F13B0102290AD3A0F127
:1035B0002B0101290ED80090482058214FF4A87201
:1035C000822305E00090092057214FF4E7728423FD
:1035D00003F040F99AF8280001280DD0002840F0A7
:1035E0002F81B9F8BA0320B399F8E663022E29D0E7
:1035F000032E2CD1192126E0B9F8BC0399F8C46335
:1036000050B14EB999F8E663022E00F08A80032E7D
:1036100040F08C80192185E0D9F89840D9F8A000B5
:1036200001F0B2FAD8BB002E40F00781D9F8B450AF
:1036300040E09AF83100002800F0AD8001388AF8A7
:1036400031006AE00521D0FA51F0A9F8BA03002050
:10365000D9F82050C9E90200C9E90400D9E90640B7
:1036600001F092FA28B1D9F8240001F090FA00286C
:1036700053D199F8CD03C9F82450C9F81C4000284B
:1036800008BF254601F0B6FA0446022E3BD0032EB1
:1036900043D101F036F940F28910502139E0D9E9DF
:1036A0002D5001F074FA0021002840F0C780002E50
:1036B00040F0C48099F8C01399F8C22399F8D9331F
:1036C00099F8E603C9F8B850C9F8A040090608BF40
:1036D000254682F00101DAB2114318BF2546CAF827
:1036E0007050022800F09580032840F0A68001F079
:1036F00081FA0246202043F28611CDE900104FF4F2
:10370000CA70CD2195E05E2001F056FA01F045F92E
:1037100078214FF66143FFF7BDFC9AF82800411C61
:103720008CE00521D0FA51F0A9F8BC0399F8C973CF
:10373000022F04D0C948C9F8B800C9F8A000D9E9D7
:103740002640D9F8BC5001F01FFA28B1D9F8C000C2
:1037500001F01DFA002870D1C9F8C050C9F89C408A
:10376000022F08BF2C4601F024FA0446022E07D08F
:10377000032E62D101F0C5F84FF4CA70CD2107E0E5
:10378000622001F00AFA01F008F94FF487707821FD
:1037900043F67F434FE099F8C4030028BDD1D9F820
:1037A0002850D9F800B000212846FFF769F8AC4945
:1037B00006462846FEF7BCFFAA49FEF7EBFF01F0DC
:1037C000FAF885F00041002E18BF084699F8CD831D
:1037D000B8F1010F18BF0846FFF789F899F8C973C7
:1037E0000546012F40F0E583B8F1010F40F0138446
:1037F0009B4C58462146FEF79BFF9A49FEF7CAFFAD
:1038000001F0D9F89849C9F80400FEF739FF0646D7
:10381000E0E3602001F0C1F9DAF87000FFF767F823
:103820000246502041F6A301CDE900104FF4877005
:1038300078214FF6FF73FFF72DFC00218AF828103E
:1038400099F8E603022800F07581032840F087818B
:103850009AF81F0058B9002029214FF4BC72FA23AE
:1038600000901220FFF755FB01208AF81F00D9F8BD
:1038700000407E49D9F8485001F078F999F8C973A9
:10388000012F18BF2046FFF732F80446FFF721F852
:1038900001462846FEF7E6FF064601F0ABF905466D
:1038A000002E08BF254699F8D903B421012808BF86
:1038B000982199F8C203012818BF982159F80100EE
:1038C000FFF715F8804699F8C003002638B1D9F8FB
:1038D000B0006749FEF7AAFF002800F04E814FF0C4
:1038E000000828B2FEF7F5FF62490546FEF7ACFF77
:1038F000614C00281CBF0025C4F2FA3501F0CCF958
:103900005E4A00281CBF0025C4F2C825284621466F
:1039100006F046FFAAF858004046FEF7E3FF584974
:1039200001F081F900281CBF0024C4F2483420466D
:103930000021FEF76DFF0028524A18BF00242046E0
:10394000002106F02DFFAAF85A0040F2651744F650
:10395000384B4FF0000ABA453DD00AF11200C84674
:10396000D144009684B20AF1140099F8EC1099F849
:10397000ED3085B220462A46FFF778FA99F85212C0
:1039800099F8533220462A460096FFF76FFABAF5A7
:10399000B27F14D04FF2604099F8EE3099F8ED10F4
:1039A0002A4600902046FFF761FA99F8543299F8B8
:1039B000531220462A46CDF800B0FFF757FA99F87F
:1039C000ED000AF1010A89F8EC0099F8530289F830
:1039D0005202C146BFE7DFF860AEDFF8786E002420
:1039E00048F20F454FF02A084727BAF8580089F8DF
:1039F0005102BAF85A0089F8B703BCB1052C43D07C
:103A000004FB08F04FF4BC720095283081B21220FC
:103A10000B46FFF72BFA04FB07F02821FA23009549
:103A2000123080B20246FFF721FA15E01220282159
:103A30004FF4BC7228230095B0471220282112228F
:103A4000FA230095B0471220FA2101F08FF94FF4C4
:103A5000BC70282101F08AF90134CEE700007F43D1
:103A6000000010410000A0400000F4C2000048C265
:103A70000000F0410000FA430000C8420000164474
:103A80000000484300007A4373202A212F22192383
:103A90000090142002F0DEFEDFF8C84D0C250FF672
:103AA000B8521520462101F04DF80FF6BC521520F2
:103AB000702101F047F80FF6BC5215209A2101F051
:103AC00041F80FF6BC521520C42101F03BF80FF667
:103AD000BC521520EE2101F035F874202A2117225E
:103AE0001723009040F25F1002F0B4FE0FF6A852C8
:103AF0004FF4B270462101F021F80FF6A0524FF4B6
:103B0000B270702101F01AF80FF694524FF4B270AF
:103B10009A2101F013F80FF68C524FF4B570C421BE
:103B200001F00CF80FF680524FF4B870EE2101F05E
:103B300005F897E0D9E90045D9F8100001F024F81C
:103B400088B9B9F8BA1399F8CD03C9E90445D9B1D0
:103B500038B3D9F820009E49FEF792FD1EE0002000
:103B60008AF81F007EE0D9F8140001F010F8B9F8C7
:103B7000BA130028E7D091B3E5E7022F7FF4B1AE86
:103B800001F0B2F88046ACE699F8C96360B190499B
:103B90002846FEF775FD012E18BF28468D4C8E4D28
:103BA0000AE0D9F8180005E08C4900F0DFFF012E8B
:103BB00018BF20468A4C8B4DFEF7DFFE02460B46AF
:103BC00028462146FEF797FBFEF729FD02466A20AC
:103BD00027214FF6A04300901A20FEF737FFD9F8AF
:103BE0009840D9F8A400D9F8B45000F0CDFF10B92E
:103BF000D9F8BC600CE0D9F8A800D9F8BC6000F096
:103C0000C6FF28B1D9F8AC003146FEF739FE48BBF3
:103C100009F1A40070C099F8C003012809D199F8EE
:103C2000C203012805D199F8D90310B9B9F8BC032A
:103C300020B101F044F808BF3446254600F0DAFF11
:103C4000FEF7E0FC684B00F056FEFEF7E8FC02468B
:103C50006B204FF4E37140F25F43009040F2B910E3
:103C6000FEF7F4FE99F8E603011F11F1020FC0F010
:103C7000CD8046F269605D214FF481724FF49473F8
:103C8000ADF850003020109346F268531291CDE900
:103C90000C21CDE9072199F8B813119213900E90D9
:103CA00009905A20ADF83C30C123069099F8B90329
:103CB0000B9346F26743ADF82830884247D006ACF4
:103CC000012604F10805042E10D099F8B9038642A4
:103CD00009D16F7AAB882A8835F8041C35F8080CAE
:103CE000009702F0B7FD14350136ECE799F8B903F7
:103CF00008B104280DD300253C2D0AD06619605B5D
:103D0000B3893289B188767C009602F0A3FD143520
:103D1000F2E799F8B803411ECAB2022A0FD8900000
:103D200050FA81F134F8210004EB8104A38922893F
:103D3000A188247C009402F08DFD99F8B803DD4938
:103D4000002289F8B9038AF8292000F01FFE002814
:103D50005AD09AF82900002856D1D9E91A06D9F87C
:103D60001850D9F82040FEF7C2FDADF8120000F05F
:103D7000ECFFADF81400D9F87000FEF7B8FDADF80F
:103D80001600D9F87400FEF7B2FDADF80C00D9F8B2
:103D90007800FEF7ACFDADF80E00D9F87C00FEF718
:103DA000A6FDADF8100000F025FF054600F001FF6C
:103DB00000210DF1120203AB03291BD032F8114090
:103DC000AC4221D033F8114001318442F4D11BE0E0
:103DD0000000F4C2E3A5BB3FD9CEF753000048C2B0
:103DE0009999C93F9A9999990000E43F08010020E8
:103DF000CC170020AF48C9E93500C9E93700C9E947
:103E0000390001208AF8290099F8E60300F0FE0045
:103E1000022840F09B80D9F86840D9F8D400D9F83E
:103E2000745000F0B1FE20B1D9F8E00000F0AFFE10
:103E300090B900F0F4FE08BF2C4600F0BAFE00F086
:103E4000D0FE602000F034FED9F86800D9F8741074
:103E5000C9F8D400C9F8E010D9F86C40D9F8D800F6
:103E6000D9F8785000F090FE20B1D9F8E40000F0C5
:103E70008EFE90B900F0D3FE08BF2C4600F099FEEC
:103E800000F0AFFEC72000F013FED9F86C00D9F89F
:103E90007810C9F8D800C9F8E410D9F87040D9F8FA
:103EA000DC00D9F87C5000F06FFE20B1D9F8E800B2
:103EB00000F06DFE98B900F0B2FE08BF2C4600F08D
:103EC00078FE00F08EFE4FF4977000F0F1FDD9F807
:103ED0007000D9F87C10C9F8DC00C9F8E810D9F8EE
:103EE0008040D9F88C0000F04FFE50B900F061FE20
:103EF00000F077FE8D2000F0DBFDD9F88000C9F8D6
:103F00008C00D9F88440D9F8900000F03DFE50B9FB
:103F100000F04FFE00F065FEF42000F0C9FDD9F876
:103F20008400C9F89000D9F88840D9F8940000F0CE
:103F30002BFE58B900F03DFE00F053FE40F25B103E
:103F400000F0B6FDD9F88800C9F894009AF81C0072
:103F5000013000F02FBCD8F80000D8F82810D8F8AD
:103F60001870FEF7DFFBFEF7C2FC012C08BF3238E9
:103F700000B2FEF7AEFC504905463846FEF780FB1E
:103F800029468146FEF752FC4C4904463846FEF766
:103F900077FB064634B930462946FEF763FC002815
:103FA00000F0CD8030462946FEF732FC40BB0120B0
:103FB00000E1B8F1010F40F0A980414C584621467C
:103FC000FEF7B6FB3F49FEF7E5FB00F0F4FC0646C2
:103FD000C9F804002846FEF77CFC014600F0B2FE5A
:103FE0000546D9F8D000D9F84C602146FEF7A0FB71
:103FF0003449FEF7CFFB00F0DEFC0146284618E00E
:1040000048462946FEF720FC002840F0D8800020D2
:104010008AF82600D1E02C4900F037FE06462846F3
:10402000FEF757FC014600F08DFED9F84860D9F83C
:10403000D010FEF725FBFEF75AFC0546FEF749FCBB
:1040400001463046FEF70EFC10B100F07EFE05463C
:10405000142059468AF83100D9E90160FEF710FCB6
:1040600099F8E64338B1D9F80C003146FEF708FC60
:1040700000287FF452AB022FC9E902B626D099F886
:10408000D303012822D19AF83200002875D009F113
:104090001800B8F1010F08BF09F120000068FEF711
:1040A00026FC0546CAF8740012E000BFCC170020B9
:1040B0000000002000007F430000C8420000C8C28A
:1040C000000010410000A040000048C2CAF874502F
:1040D000032C0ED0022C7FF420AB5C2000F06CFD92
:1040E000BAF87420502041F6A301CDE900107821E0
:1040F00008E0202043F28611AAB2CDE9001040F278
:10410000891050214FF6FF73FFF705BB2846FEF7D5
:10411000E0FB014600F0B9FDD9F8D010D9F84860AD
:10412000FEF7AEFAFEF7E3FB0546FEF7D2FB0146CB
:104130003046FEF76DFB00283FF487AF88E79AF81A
:104140002700022835D1DFF8F406018A01390182FF
:1041500009B2002933DC3221018238462946FEF7B4
:10416000E1FAFEF7C4FB01B280EAE130A0EBE130F6
:1041700000B20128D8BF01201FE02846CAF87450B9
:10418000FEF7A7FBD9F81860DF49804600F0DAFD9A
:104190004146FEF767FB00289AD1DC4900F0D2FDCA
:1041A0004146FEF743FB002892D101208AF83200F5
:1041B0008EE702208AF826006420AAF852009AF8B6
:1041C00026008AF82700DFF87416BAF85200C98969
:1041D00081423AD0C0B2642828BF6420012898BF29
:1041E0000120C0F16400FEF77DFBC949FEF7D2FA59
:1041F000C849FEF79DFAFEF77AFBC0F5877044F2D6
:104200005071432384B20091CF203F212246FEF714
:1042100080FE41F6A3003F214FF4877243230090B4
:104220002046FEF776FEBAF85220182000214FF6FD
:10423000FF73CDE9001040F245103421FEF72AFF4C
:10424000BAF85210DFF8F405C18198F8E67307F068
:10425000FD002D2804D1D8F82C50D8F8344007E0C0
:10426000D8F81850D8F82040C8F82C50C8F8344076
:10427000D8F83000D8F8386000F089FC18B1304622
:1042800000F082FC28BB47F00200C8F83840C8F8AC
:1042900030502F281DD198F8CD0398F8DC63002802
:1042A00008BF2C4600F085FC0246202043F2661130
:1042B0004FF6FF73CDE90010F0B2022808BF4FF4AB
:1042C000FC634FF487702F2F18BF5B469621FEF7D3
:1042D000E1FE9AF82A0038BB0120D8F81860D8E926
:1042E0001A548AF82A00D8F80000FEF700FB00EB09
:1042F000C000052700F03DFCC8F8040000F025FDD3
:1043000000F0DDFAC8F8200000F074FC00F0D7FAE5
:10431000C8F8740000F04DFC00F0D1FA00F0ECFC9D
:1043200000F0CDFAC8F87C00D34698F8CDA398F8F1
:10433000CE43544525D0D8F80000D8F81860D8E905
:104340001A59FEF7D4FA00EBC000052700F011FC63
:10435000C8F8040000F0F9FC00F0B1FAC8F8200039
:1043600000F048FC00F0ABFAC8F874004846FEF7CD
:10437000BEFA00F0A4FA00F0BFFC00F0A0FAC8F802
:104380007C009BF81D00062800F27D80DFE800F02D
:10439000047E193E099DC800544540F0D680012096
:1043A000D1E098F8E603DA46372840F0248198F8FF
:1043B000DD03012800F01581002840F0F5816F2011
:1043C00010E198F8E603232840F0BC8098F8DF035A
:1043D000DA460138C1B2032900F2E680C000DFF8F6
:1043E0006854782114221423C4B24B4800F0B0FC66
:1043F0004A4EA1211422142306F57F4000F0A8FCA8
:1044000026FA04F0CA2114221423CBE198F8E6031B
:10441000DA46A0F1230100F0B2FA00F2C5810122D0
:1044200002FA01F140F66162114200F0BD812D28CF
:1044300008D0352806D0372802D198F8DD1309B105
:10444000392804D14E2000F0C5FB98F8E6032F2848
:1044500005D0372808D198F8DD13012904D151205F
:1044600000F0B8FB98F8E603232840F09D8198F807
:10447000DF035121042808BF4E210091C420FF21F1
:1044800058222D233CE00020DA4693E198F8E60319
:10449000DA46A0F11D0100F072FA00F285810122D6
:1044A00002FA01F140F67742114200F07D811D28A9
:1044B00040F0CE8098F8CC03002800F0C08001289E
:1044C00040F0C6808924B121BBE098F8C0039BF876
:1044D0001E10DA46814200F0678198F8C91302295C
:1044E00000F0628198F8E61300288AF81E005DD17A
:1044F00002295BD14020282196224B230090A52041
:1045000002F0A8F950E100BF000020C100002041E6
:104510000000C84200007C42797A7A7A7A7A797A05
:104520009BF82D2098F8C913DA46022A23D10229D4
:1045300021D098F8E6038AF82D10022840F05A811D
:104540007C2050E10320DA4631E198F8E6032F2879
:104550003DD0032800F033812D2838D0022840F0C8
:104560005B81BAF1010F00F04F81BAF1000F40F00A
:1045700053814C2049E10020022A00F018810229D1
:1045800040F0158102208AF82D0098F8E6030228F1
:1045900040F0308198F8D603002800F020810128EF
:1045A00040F020817E201BE1032000E1012808BFAC
:1045B000022940F0F98098F8D603002800F03481F1
:1045C00001284FF6FF7440F034817E202FE1BAF1CC
:1045D000010F00F0FC80BAF1000F40F01D8148206F
:1045E000F6E06C200090CD20BE214622202302F070
:1045F00031F998F8E603352840F0D680EC20832185
:1046000043F2661220234FF0EC0843F26615202691
:10461000FEF7A4FD00278AA4072F00F0C580781EAE
:10462000C0B2052809D8225C08EB0710B5214FF667
:10463000FF73CDE9005600F077F90137ECE7B124BC
:1046400089215A2000F034F95B20214600F030F92E
:1046500098F8E6031F2812D198F8CF03012803D059
:10466000A8BB8924B12101E0B12489215A2000F09E
:104670001FF95B20214600F01BF998F8E60321287A
:1046800010D198F8D20320B101280BD18924B1218F
:1046900001E0B12489215A2000F00AF95B2021466B
:1046A00000F006F998F8E603312812D198F8D503FE
:1046B000012803D0B0BB8924B12101E0B1248921B4
:1046C0005A2000F0F5F85B20214600F0F1F898F848
:1046D000E603332810D198F8DB03012803D058B93A
:1046E0008924B12101E0B12489215A2000F0E0F8A9
:1046F0005B20214600F0DCF898F8E603252813D16A
:1047000098F8E103022804D003284DD18924B1216F
:1047100001E0B12489215A2000F0CAF85B2021462B
:1047200000F0C6F898F8E60327281ED198F8E303AE
:1047300000F014FB38D8C000434D752125221E23FC
:10474000C4B2424800F004FB414E9E2125221E23A4
:1047500006F57F4000F0FCFA26FA04F0C721252276
:104760001E2300F0B4F898F8E60329281CD198F825
:10477000E50300F0F3FA17D8C000334D7521252268
:104780001E23C4B2314800F0E3FA314E9E212522A7
:104790001E2306F57F4000F0DBFA26FA04F0C7215D
:1047A00025221E2300F093F89AF81D0001308AF8A4
:1047B0001D0000208AF81C0015B0BDE8F08FBAF18A
:1047C000010F19D0BAF1000F26D14A2015E0492077
:1047D00000904FF4A07099211C221B231AE07B202B
:1047E00000F0F1F97520009091205021BE22232382
:1047F00002F030F80020DAE74B2000904FF4DC7034
:1048000054211A22182305E04D200090C820AA2127
:104810001422152302F01EF898F8CD03DA4688F822
:10482000CE039BF81D00C1E77B204FF6FF7400F01C
:10483000CAF90248C481B7E708010020000000203F
:1048400056312E302E310000556800085A5B5B004F
:104850005B5B5A006D2E0008353030283933322921
:104860000000000027310008343030283735322965
:1048700000000000333030283537322900000000B6
:1048800032303028333932290000000031303028EE
:104890003231322900000000323030003135300032
:1048A000313030003530000030000000FEE7704746
:1048B00025221E2300904FF4AA7001F0CBBF00EB1D
:1048C000C000B0FBF7F0203080B2FEF70BB8C0B2EA
:1048D00000904FF4AA702847206820F00100206063
:1048E00010BD95F83500013885F835000006704791
:1048F0000022FDF759BC0022FDF7FDBC2946FDF75B
:1049000095BF202043F28611A2B2CDE90010704776
:10491000B4F860000130A4F8600080B27047D9F8A4
:1049200020004FF04241704780B2FEF72BBBCDE92B
:104930000144ADF814407047BDF808100A31ADF8D5
:1049400008109DF80B1001317047042002F056BB8F
:10495000656005F00DBC4FF47A704FF07E517047E2
:1049600001F0070125F4E04545EA013170472D20AB
:1049700087F8E603002070470446FDF749BFCAB236
:10498000C90141EA5201C9B20B297047C9E9351181
:10499000C9E93711C9E939117047502041F6A3011F
:1049A000A2B2CDE90010704781F82D2000213172AC
:1049B0000221022870474FF08441FDF761BE00BF1D
:1049C00000BF00BF00BF00BF00BF00BF00BF00BFEF
:1049D00000BF704797F8E60300F0FE010229704718
:1049E000C9F82410C9E92311C9E92512C9F89C1096
:1049F00089F8B8037047C4F8006825606560C4F89A
:104A0000FC03704750F8210052F821100068C9F8E3
:104A100018000968C9F898107047A7F8BC03D7F8C0
:104A2000BC00FDF72DBEA7F8BC03D7F89800FDF732
:104A300027BEA9F8BC03D9F8BC00FDF721BE0120B0
:104A40008AF80D0000208AF83200502068614FF487
:104A50007A70A9F8BA0399F8CD030128704707F1D5
:104A60008C0002EB8102704709F18C0002EB81029D
:104A70007047BDF808109DF807201144B1427047F7
:104A800020464FF07E51FDF7FBBD00200121102292
:104A900084F82004C4F81804C4F81C0404F58260E7
:104AA00002F086BA4FF04241C9F82000FDF7E8BD98
:104AB0004FF48C71FEF7EEBA0A6842F001020A6008
:104AC000704787F8E60397F8E10397F8E31397F840
:104AD000E52387F8E00387F8E21387F8E4237047BB
:104AE00097F8B813C7F89840032970476861012008
:104AF0008AF80D004FF47A70A9F8BC03D9F8980031
:104B0000FDF7BEBD97F8B813C7F8BC40032970473E
:104B1000C4F81014C4F8140404F5A2604FF48171B1
:104B2000FDF7A3BD99F8B813C9F8BC400329704735
:104B300099F8B813C9F898400329704744F63843E8
:104B4000009520474FF260430095204700210172F5
:104B500099F8C9130229704780F83010C185816225
:104B600080F82C1070472046FDF77CBE2046FDF7EC
:104B700087BDB0FBF7F0203080B2FDF7B3BE4FF039
:104B800042413862FDF77CBD2146FDF779BE2946DA
:104B9000FDF776BE2046FDF757BED4217B221923B0
:104BA00000904FF4877001F055BE78632846FDF7FA
:104BB00067BD2046FDF79BBED2217B221C230090BF
:104BC0005A2001F047BE0090A520282196224B23B1
:104BD00001F040BEFA2158222D230090C42001F09C
:104BE00039BE0246182043F286114FF6FF73CDE915
:104BF000001070472846FDF77ABE0446FDF716BE42
:104C000001462046384799F8E60300F0FE000228E6
:104C1000704700248AF83240C9F8BA03704799F8FF
:104C2000CD03012870470446FDF70EBE89F8BE4348
:104C3000C9E92300C9F89400D9F89800704728689A
:104C400040F001002860704787F8E6130238B0FA98
:104C500080F0400987F8C60370470020307281F861
:104C600032004FF47A70A7F8BA0397F8CD03012801
:104C700070478DF80B109DF80B1070479AF80E10C6
:104C8000012970472046FDF7D1BD5846FDF7F8BC15
:104C90000130C1B20329704728462146FDF7B8BD4F
:104CA000013A013B92B29BB2FEF764B805F5A260EF
:104CB0004FF48171FDF7D9BC0446FDF7D3BD99F8D7
:104CC000C903022870470A6842F001020A60010E17
:104CD00084F8240484F82114010C84F82214010AB5
:104CE000F02084F825047047D9F8BC00FDF7FFBD1B
:104CF00001463046FDF79ABDC8F87800D8F8700034
:104D0000FDF7F5BD272087F8E60397F8E20387F85B
:104D1000E3037047252087F8E60397F8E00387F858
:104D2000E103704797F8C90302287047292087F8E4
:104D3000E60397F8E40387F8E503704797F8DC0388
:104D4000022870473046FDF79BBC3046FDF7CFBDCB
:104D5000E040C0B200904FF4AA7028470138C1B2B9
:104D6000022970470020A4F8600070474FF4BC721D
:104D7000FA230095304786F8E40304F1260028471B
:104D800086F8E20304F12400284786F8E00304F1E2
:104D90002200284786F8C90304F12000284786F836
:104DA000D90304F11E00284786F8D30304F11C0040
:104DB000284786F8D60304F118002847C9F89C0054
:104DC000C9E92300C9F89400C9F82400C9F81C00F7
:104DD0000020C9F8BA137047B8633863B869FDF7A3
:104DE000A1BC86F8D00304F11600284786F8CD034D
:104DF00004F11400284786F8C60304F1120028477E
:104E0000C6F8880004F110002847C6F8840004F1B1
:104E10000C002847C6F8800004F108002847D7F89E
:104E20002C802846FDF784BC4FF48073CDF80090A9
:104E30005047044628462146FDF706BD7047704797
:104E40002DE9F041DFF8846B3078013830700006CE
:104E500048D1DFF87C4B1420307094F8D00301283F
:104E600013D1DFF8705B95F8340002281DD00128BB
:104E70000ED058BB02F090F8307A012820D028BB21
:104E8000012085F8340002201EE002F085F829E0B8
:104E900002F088F8FFF725FD18D1317A022085F855
:104EA000340089B101290ED010E002F075F8FFF747
:104EB00018FD0BD102203072002085F8340003E089
:104EC000012085F83400192085F8350094F8C403D2
:104ED00040B1707801387070000603D10120307243
:104EE00028207070DFF81C7D97F8C003022809D1D4
:104EF000FC6D00212046FDF7C3FC18B9C049FFF73F
:104F000035FEF865B0890138B081000441F00480B5
:104F10000120B081DFF8F40C00F128042046FDF7F1
:104F20008CFE01462046FDF7E3FD0138092800F21A
:104F30007180DFE800F0051C6F6F35576A0D272E72
:104F400097F8E603411F162900F25081022015E070
:104F5000DFF8B40C90F82E1000295BD1012180F805
:104F60002E10FFF737FD40F0EA820020F0E297F8BC
:104F7000E603411F162900F2BB8003203071D9E0FF
:104F8000307247E0FFF726FD40F0DE8007203071E9
:104F900063E0FFF71FFD40F0FD800820307181E0E5
:104FA00097F8E603A0F12301062940F25C81811EF7
:104FB0000229C0F0BF801B2800F0D5832F2800F005
:104FC000DF83372800F0D283392840F0BA8397F87E
:104FD000C603002800F0DE84012840F0AB800320E7
:104FE00000F0D9BCFFF7F6FC14D19449FF22C7F8B2
:104FF000BA139349C7F89C10DFF80C1CFFF7D4FCD8
:1050000008BF0321FFF720FE04E0DFF8FC0B0021BE
:1050100080F82E103079172800F23785DFE810F07D
:105020001800DF019E014A025302A50127021D005C
:10503000420062026D01BD0177019D00C300400284
:1050400035053505350585027B02300135059401AE
:10505000052087F8E60300F016BD97F8C403002882
:1050600040F01185DFF8A01BFFF7F7FD00F03A8351
:10507000002840F04F83B8697249FDF701FB72497F
:10508000FFF7BBFD10B9704C0020F8616F49204656
:10509000BC61FDF74DFB6E49FDF77CFBFFF78BFC18
:1050A000386237E397F8C403002840F0EC84DFF857
:1050B000581BFFF7D2FD00F03A83002840F0B4837C
:1050C000B8696449FDF7DCFA6349FFF7F5FD10B9EB
:1050D000614C0020F8615D492046BC61FDF728FB6A
:1050E0005B49FDF757FBFFF766FC386200F09CBB9D
:1050F000A0F11D011A2900F25283DFE811F0B2007D
:105100001B0066031B006C031B001D001B00DC035F
:105110001B00E3031B000D041B007C0381037203CF
:105120001B00D6031B006F031B0086031B001B0024
:105130001B006903002023E797F8DF03013801060D
:1051400008BF042000F0F6BB2F287FF463AFFFF701
:10515000F5FD7FF45FAF0D20307197F8CD03012886
:1051600000F0F981002840F08E84BC693749FD6A5F
:105170002046FDF7DDFA3649FDF70CFBFFF71BFC77
:105180003049FFF712FD34490546FFF7EFFCFFF702
:1051900050FE25E02F287FF43DAFFFF7CFFD7FF4D1
:1051A00039AF0E20307197F8CD03012800F0DF8170
:1051B000002840F06884BC692449FD6A2046FDF758
:1051C000B7FA2349FDF7E6FAFFF7F5FB2149FFF7A8
:1051D000ECFC22490546FFF7C9FC0446FFF75CFDDD
:1051E000002818BF2546FD6200F04DBCA0F11D014E
:1051F0001A2900F2DB820FF20C00D0E811F000BF98
:10520000000080BF32003100E6023100EC023100C4
:10521000940331009F03310077033100B103310063
:10522000FC020103F20231006A033100EF02310097
:105230000603310031003100E90200BFE803E80352
:1052400000007F43000020410000FA4300001041AD
:105250000000A040000020C10000C8420000C8C2F9
:1052600068E709208AE6DFE811F06F026C020700A8
:105270006C0207006C0207002320FFF722FC59E7AD
:10528000D048D14CD14DD2490023012287F8E823E0
:1052900087F8B833BB6287F8D83387F8D63387F8F6
:1052A000D223A7F8CC33A7F8C83387F8C6333B65B9
:1052B00087F8DB3387F8D93387F8D52387F8D323EA
:1052C000C7F89800C7F88800C248C7E92054C24C04
:1052D000B96138674FF48070C7E91A41A7F8CF0366
:1052E0004FF00130C7F8E20340F20220A7F8E003D4
:1052F000BA48C7F8BA0300F0C6BB97F8CF03002836
:1053000000F04781012840F0BE83002042E197F879
:10531000CD03012800F04381002840F0B483BD692B
:10532000AF49FFF77CFDAF49FDF734FAFFF743FBC8
:10533000AD49FFF73AFC054640462946FDF792FA8B
:10534000AA490446404644E097F8DD03002800F0EF
:105350003481012840F0978300202FE197F8E6037D
:10536000811C1A2888BF0521AAE097F8C4030028E9
:1053700040F08983DFF89018FFF76FFC00F061823E
:10538000002840F04883BC699949FFF77BFC00285E
:1053900000F02783FFF774FB26E397F8CD0301287D
:1053A00000F03281002840F06E83BD698C49FFF720
:1053B00036FD8C49FDF7EEF9FFF7FDFA8D49FFF751
:1053C000F4FB05464046FFF799FA044640464FF085
:1053D0007E51FDF755F9002C08BF284632E197F8B9
:1053E000E613481F362800F2F782DFE810F0370096
:1053F0004C03E2064C03DB064C03EF064C03A1060C
:105400004C03C2064C03B2064C030C074C03EC06DB
:105410004C0313074C03E9064C034C034C03F506FD
:105420004C0322074C0319074C034C034C034C0359
:105430004C034C034C034C034C032B07AB063707C0
:105440004C03D2064C03B9064C0303074C03340744
:105450004C034C034C034C034C03F7021D2087F80C
:10546000E603FFF75FFC08BF97F8CB03AAE197F8C4
:10547000C403002840F00783DFF88C17FFF7EDFB2B
:1054800000F0E981002840F0EA82BC695949FFF741
:105490006AFB002800F0C9825449FFF767FBC7E2A6
:1054A00097F8D203002800F0CF80012840F0EB826B
:1054B0000020CAE097F8E603811E062838BF1B21AA
:1054C00087F8E613DFE297F8C603012800F0C280F0
:1054D000002840F0C28097F8C203012800F2BD8086
:1054E0000220B8E097F8CC03012800F0E080002803
:1054F00040F0C982FFF716FC40F05F8101200021D7
:1055000087F8CC0340F2FF10A7F8CA03DFF8F806CB
:1055100080F83010B7E297F8DB03012800F0D6805E
:10552000002840F0B0820120D1E097F8D50301288F
:1055300000F0D280002840F0A6820120CDE0411F7B
:10554000372901D3812804D197F8E80308B904204A
:105550003071012014E5786B27493C6AFDF790F81B
:1055600026490546FFF702FBFFF763FC0BE0786B6B
:1055700023493C6AFDF784F822490546FFF7F6FA0D
:105580000446FFF789FB002818BF254628467D639F
:105590004EE0012087F8CD0387F8CF0373E2386A25
:1055A00018497C6BFDF76CF8054620462946FDF747
:1055B00059F90E498046204633E0012087F8DD0383
:1055C00061E200BF000020420000F0410000A04165
:1055D0000000BE430000C8430000AF43E803E803F7
:1055E000000010410000A0400000C8C2000080BFC1
:1055F0000000FA430000C84200002041000054436C
:10560000000020C1000054C3386AE5497C6BFDF7F7
:1056100037F805462046FFF771F9804620464FF0DF
:105620007E51FDF72DF8B8F1000F08BF28467863CA
:105630004FF04241FDF724F8DA49FDF779F8DA49ED
:10564000FDF7A8F8F8621EE2012087F8D00387F87A
:10565000D20318E2032087F8E603DFF8700D90F814
:105660002F10012906D10021A0F82F104FF601714B
:10567000A7F8C913002180F8311097F8C41311B1AD
:10568000FF2187F8C51397F8C913022905D1FF2117
:1056900080F82D104FF47A7003E0C448C7F8A000DA
:1056A0000020C249A7F8BC03C7F89C10EBE1FFF744
:1056B00039FB40F08480FF210020A7F8CA13DFF8EF
:1056C0000C1D87F8CC0381F83000DCE1002087F85E
:1056D000D90387F8DB03D6E1002087F8D30387F8E6
:1056E000D503D0E1386AB249FCF7CAFFB149FFF7E8
:1056F00084FA10B9AF4C0020786220464FF0424146
:105700003C62FCF7BDFFA749FDF712F8A649FDF77B
:1057100041F8B86197F8B813032900F2B181FFF797
:105720009EF9DFE811F0B001AB01A601A9013C6AC6
:10573000A149FFF718FA00286AD0A049FFF716FA26
:1057400069E00120FFF71ABC97F8DF03013803284E
:105750003FF6F0ACDFE810F004007A044E04550484
:10576000FFF7D8FAE6E40420FFF708BC97F8DD035A
:10577000012800F00B8100287FF4DCAC17200AE13F
:1057800097F8DC03012871D10220B9693A6A87F8D9
:10579000DC038648C7E90B10C7E90D20CAE40238CC
:1057A0000228BFF4C7AC0620FFF7E8BB0238022886
:1057B000BFF4C0AC0520FFF7E1BB012000E00020F2
:1057C00087F8C90387F8CC035DE10A20FFF7D6BB51
:1057D0001720FFF7D3BB0F20FFF7D0BB1320FFF735
:1057E000CDBB97F8DC0300287FF4A4AC2F2087F80A
:1057F000E603012076E0012087F8D6032C20CAE0DA
:10580000002087F8D6032B20C5E01420FFF7B6BB95
:10581000002078626248FFF7B2F96249FCF788FF1E
:105820006149FCF7B7FFB86197F8B813032900F294
:105830002781FFF714F9DFE811F0260121011C018F
:105840001F013C6A5B49FFF71DFA002800F0D78072
:10585000FFF716F9D6E03C6A5149FFF784F90028B2
:1058600000F0F1805649FFF781F9EFE00120D7E918
:105870000A4187F8DC034D48FFF7AEFA0146FFF70F
:1058800075F95049FFF7CFF94F4900281CBF002494
:10589000C4F2C8242046FCF7BBFF00281CBF00242C
:1058A000CCF2C824BC62FFF745BCFFF747FA14D11D
:1058B0000C20FFF763BB97F8E103FFF74FFA38BFFF
:1058C000032041E097F8E3030138010608BF0320F5
:1058D00012E0FFF733FA00F0F18401287FF42AACDC
:1058E000FFF745F887F8DC03FFF724BC97F8E303DC
:1058F000FFF7CEF988BF012087F8E303C0B2032881
:1059000000F0C584022800F0C084012804BF0120F3
:1059100087F8E203FFF70EBC97F8E50301380106AC
:1059200008BF032022E097F8DF030130C1B2042949
:1059300088BF012087F8DF03FFF7FCBB97F8E1037E
:10594000FFF7A6F988BF022087F8E103C0B2032859
:1059500000F04B8302287FF4EDAB022000F046BB41
:1059600097F8E503FFF794F988BF012087F8E5036E
:10597000C0B2032800F09984022800F08D84012829
:105980007FF4D8AB0120002100F088BC15203071D5
:10599000392000E0022087F8E603FFF7CBBB00BF09
:1059A000000054430000A0400000104100007F436D
:1059B000000048420000694400007D43000024C20A
:1059C000000080BF0000C8420000C8C200000020E4
:1059D000CC17002008010020812954D11920FFF79D
:1059E00038BB0020F86198489849B861FCF7A0FEE0
:1059F0009749FCF7CFFEFEF7DEFF38620BE0002090
:105A000078629448FFF7BBF89149FCF791FE8F4903
:105A1000FCF7C0FEB86197F8B813032930D8FFF738
:105A20001EF8DFE801F0302B26290020F8618A48B3
:105A30008649B861FCF77CFE8549FCF7ABFEFEF7B2
:105A4000BAFF38620BE0002078628448FFF797F8CD
:105A50007F49FCF76DFE7D49FCF79CFEB86197F825
:105A6000B81303290CD8FEF7FAFFDFE801F00C07A2
:105A7000020507F1900001E007F194007849016008
:105A8000002087F8B80316203071DFF898482046C8
:105A9000FDF7D3F801462046FDF72AF8013809281A
:105AA00000F27281DFE810F00A002300700170013B
:105AB0004B006B007F0013002C003C00FEF78AFFB8
:105AC0007CD1FFF72FF914BF0120052026E0DFF875
:105AD000400D90F82B10002940F05681012180F8EC
:105AE0002B10FEF777FF40F0798000207FE0FEF773
:105AF00071FF5ED1FFF716F914BF022006200DE0FA
:105B000097F8E60300F0FE00022840F03B8197F88A
:105B1000C9030238B0FA80F040098000F07031E12A
:105B200097F8E60300F0FE00022840F02B8197F87A
:105B3000C9030321022808BF0721F17022E197F869
:105B4000E603A0F1230106293ED9811E0229C0F0F7
:105B500019811B2800F0C2802F2800F0CA80372846
:105B600000F0BE80392840F0A98097F8C6030028CD
:105B700000F03782012840F00581032032E2FEF771
:105B800029FF40F001813749FF22C7F8BA13344991
:105B9000C7F89C10DFF8781CFEF706FF08BF03214A
:105BA000FFF752F8F0E0DFF8680C002180F82B10C6
:105BB000EAE0411F16291DD80320E2E0411F162903
:105BC00000F259800220DCE0DFE801F07A78047806
:105BD000047804002320FEF774FFD3E0411F372927
:105BE00001D3812804D197F8E80308B90420307163
:105BF0000120C8E01D381A2800F2C4800FF21001FD
:105C0000D1E810F0CC170020080100206C00002023
:105C10005A00C000BE00C000BC00C0003200C0007E
:105C20003002C0004A02C0003702C000AA00AF0024
:105C3000B400C0002B02C000A800C000A600C00035
:105C4000C000C000A40000BF0000FA4300001041E3
:105C50000000A040000069440000C8420000544316
:105C600000007F43E803E80397F8DF0301380106EB
:105C700008BF042044E21D381A2800F28380DFE8C0
:105C800010F01B0081007F0081007D008100380240
:105C900081001202810023028100420281006B0018
:105CA000700075008100FF018100690081006700BC
:105CB0008100810081006500092062E0012060E030
:105CC00097F8DF03013803285CD8DFE810F0040000
:105CD000C3019701BD01FFF71DF853E0042050E018
:105CE00097F8DD03012800F0788100284AD11720B9
:105CF00078E197F8DC0301280AD10220B9693A6AF1
:105D000087F8DC03C048C7E90B10C7E90D2039E06C
:105D10000120D7E90A4187F8DC03BB48FFF75CF8AC
:105D20000146FEF723FFB949FEF77DFFB849002879
:105D30001CBF0024C4F2C8242046FCF769FD0028DB
:105D40001CBF0024CCF2C824BC621BE0172018E062
:105D5000142016E0132014E0012087F8D6032C202D
:105D600040E1002087F8D6032B203BE197F8DC03C5
:105D700040B92F2087F8E60301208AE10F2000E0D8
:105D80000A20307100203072F078072800F2C480B9
:105D9000DFE800F0047632491B8BA0604FF47A7084
:105DA0009C49FEF740FE9C49FEF786FF00281CBF79
:105DB0000024C4F22034FEF793FE00F2A880FEF720
:105DC0004EFEDFE801F0A7A29DA04FF47A70914942
:105DD000FEF723FE9049FEF7CFFD18B98E4C002048
:105DE000C7F8C000FEF78EFE00F29180FEF737FE86
:105DF000DFE801F0908B86894FF47A708749FEF7CF
:105E000012FE8449FEF7F9FE00281CBF0024C4F2EC
:105E1000A004FEF765FE00F27A80FEF720FEDFE8C0
:105E200001F079746F724FF47A707D49FEF7FBFDD3
:105E30007849FEF7E2FE00281CBF0024C4F2A0044B
:105E4000FEF74EFE00F26380FEF709FEDFE801F088
:105E5000625D585B4FF47A707149FEF7DEFD6D4963
:105E6000FEF7E1FE18B96B4C0020C7F8C000FEF742
:105E700049FE4CD8FEF7F3FDDFE801F04C47424500
:105E8000FEF769FDFEF7CFFD6349FEF715FF002819
:105E90001CBF0024C4F22034FEF722FE37D8FEF7E0
:105EA000DEFDDFE801F037322D30FEF754FDFEF75E
:105EB000B4FD5949FEF760FD18B9574C0020C7F8EA
:105EC000C000FEF71FFE22D8FEF7C9FDDFE801F093
:105ED000221D181B4FF47A705049FEF79EFD4D4964
:105EE000FEF7A1FE18B94B4C0020C7F8C000FEF722
:105EF00009FE0CD8FEF7B3FDDFE801F00C07020540
:105F000007F1900001E007F194003F490160002093
:105F100087F8B8030820F070708901387081000498
:105F200009D14FF47A707081DFF8E408C16DC7F8C9
:105F3000B0100021C165DFF8D858287888BB102040
:105F400001F08CFDA887A88FFCF75CFB354A364B27
:105F5000FCF7D1F9354BFEF7CEFC354A354BFCF753
:105F600023F9354A354BFCF738FA354BFEF7C0FCC0
:105F7000FCF716FD33490446B864FCF7D9FB254904
:105F8000FCF708FCFEF717FDE549F864FEF7EBFDAA
:105F900038B920460021FCF73BFC10B901203C60D9
:105FA0002870286EE04C013028662069804794F8FC
:105FB0003500012809D194F8340018B1013884F86B
:105FC000340002E0022084F8350094F8440010B157
:105FD000013884F84400BDE8F08115203071392083
:105FE00000E0022087F8E603CCE6032087F8E00310
:105FF000FFF7A0B8FEF79AFEFFF79CB8FEF796FEF3
:10600000C0E60B20FFF739B900007F430000C8420B
:106010000000C8C20000A04000002043000080BF74
:106020000000A0C052B81E85EB510A400000303F6E
:10603000295C8FC2F528F4BF33E197FA7953713F99
:1060400000001840000010410B20C4E5FEF75AFE86
:10605000FFF770B8FEF756FE94E6FEF76FFE13D119
:106060000C208EE697F8E103FEF778FE38BF032098
:106070001FE097F8E5030138010608BF032048E058
:10608000FEF75CFE00F02F8101287FF47BAEFEF767
:106090006EFC87F8DC0375E697F8E3030138010628
:1060A00008BF032016E097F8E103FEF7F1FD88BF73
:1060B000022087F8E103C0B2032800F0FB80022829
:1060C0007FF460AE0220F6E097F8E303FEF7E0FD10
:1060D00088BF012087F8E303C0B2032800F0FB80EB
:1060E000022800F0EE80012804BF012087F8E203B7
:1060F00048E697F8DF030130C1B2042988BF0120C8
:1061000087F8DF033EE697F8E503FEF7C1FD88BF99
:10611000012087F8E503C0B2032800F0E0800228E0
:1061200000F0D18001287FF42DAE01200021CCE0C9
:1061300097F8D603002800F0D880012840F0D880D6
:106140002C21D3E097F8D803012840F0818001206A
:106150007CE0312087F8E60397F8D303FFF7BFBA56
:1061600097F8D503012898BF87F8D3031120FEF7CD
:1061700070BFFEF7FCFB87F8DC0397F8C903012822
:106180007FF481AC91480121A0F82F104FF47F409B
:1061900077E0FEF7D3FD00F0AF8001287FF473AC09
:1061A0000220AAE0212087F8E60397F8D003FFF742
:1061B0004EBA1F2087F8E60397F8CD03FFF7ECB936
:1061C0003B20FEF746BF3520FEF743BF042087F88B
:1061D000DF032320FEF73DBF97F8CC03012800F032
:1061E000908000287EF434AFFEF79CFD40F0918053
:1061F00000208AE097F8DB03012898BF87F8D903CD
:106200001320FEF726BF332087F8E60397F8D9035B
:10621000FFF75FBA002087F8DD033720FEF719BFCC
:1062200097F8D203012898BF87F8D0030920FEF71A
:1062300010BF97F8CF03012898BF87F8CD03072038
:10624000FEF707BF97F8D80310B9002087F8D603E8
:106250000D20FEF7FEBE1520FEF7FBBE97F8DC030F
:1062600000287FF410AC0F2087F8E603574890F819
:106270002F1001297FF407AC0021A0F82F104FF652
:106280000170A7F8C903FFF7FEBB022000E003205E
:1062900087F8E203FEF74EBF0220012187F8E403EE
:1062A0004A4880F82C10FEF745BF032087F8E40326
:1062B000FEF740BF032087F8E00363E50B20FEF7FD
:1062C0005DBE022008E00220012187F8E4033F4878
:1062D00080F82C1056E5032087F8E20352E50320EE
:1062E00087F8E4034EE50B204BE52B2187F8E613F6
:1062F00087F8D803FFF7C7BB012087F8DC03FFF757
:10630000C2BBFEF70FFD06D1012087F8CB03FEF7D5
:106310009FBE002000E0012087F8C903FEF798BE69
:1063200000004842CC000020880100201848C169C4
:1063300041F08051C16117490A7842F004020A70A5
:10634000C16921F08051C161016841F00101016022
:1063500001688907FCD5416821F00301416041686B
:1063600011F00C0FFBD101680B4A114001600021B4
:10637000416041F61071C1624FF4801101634FF426
:106380001F01816005484FF000610160704700BF48
:106390000010024050700040FFFFF2FE08ED00E0E8
:1063A000B0B5094C606880070CD52068800709D516
:1063B000064D4FF07E51E86DFCF762F9E8656FF02D
:1063C00002006060B0BD00BF0C4C0140080100201D
:1063D0002DE9F04F85B0B34F3869C00700F05F81F9
:1063E000DFF8408998F8E903012811D1DFF82094FB
:1063F00099F8120001280FD1DFF83C4BAA4D666DC9
:1064000029463046FCF72EFA68B965652E460AE043
:106410000024C8F840402CE1A44EDFF81C0B4FF0DC
:106420008141C0E914160096D8F81860A049FEF71B
:1064300089FC834698F8C903012818BFB346D9F8E8
:1064400064005946FCF71CFA00287ED10025CA4694
:10645000B94698498DF80B50ADF808508DF80750A3
:10646000D8F898703846FCF7D3F904465846FCF73C
:106470003EFA002C06464FEA900415D14A2C8DF8BE
:10648000075033D864204F460021D146ADF80800AC
:10649000DFF88C03FEF7EDFB13294CD8FEF7E9FA81
:1064A00049D2FEF749FAF5E782493846FCF7DAF9AE
:1064B000002568BB38460021FCF7AAF94F46D146B3
:1064C000E0BB00204A2C8DF8070024D8642000216E
:1064D000ADF80800D148FEF7CCFB132900F260812B
:1064E000FEF7C7FA27D2FEF727FAF4E74FF49670C3
:1064F0004F461421D146ADF80800C948FEF7B9FB54
:10650000272918D8FEF7B5FA15D2FEF715FAF5E7E0
:106510004F46D14612E04FF496701421ADF80800B2
:10652000BE48FEF7A6FB272905D8FEF7A2FA02D23D
:10653000FEF702FAF5E79DF80B10455C68B2C9F862
:1065400064B0FCF7C6F9C8F8D000B64E758D092DB9
:1065500016D896F82C0001F081FAFCF7C3F946F83A
:1065600025000446308D01357585FCF7BBF90146E1
:10657000FEF7FCFAFCF7BBF9A9B2B0FBF1F10CE0B5
:10658000308D0A24B0FBF4F1451A96F82C0001F086
:1065900065FA284481B2B1FBF4F130858808FCF734
:1065A000A1F9D8F82810D8F8D040C8F80000FCF7B6
:1065B000B9F82146FCF764F8064698F8C9030228A2
:1065C0000DD194480021C16681660166C165A9F8B4
:1065D0004C1089F81210C8F8401081652EE098F828
:1065E000C20318B198F8D913012919D18E49584618
:1065F000BA46FCF745F8074630463946FCF732F90B
:1066000030B98A49FEF741FBFEF772FB002853D0F0
:1066100030463946FCF726F938B10025574615E0D3
:10662000012808BF002909D1CBE78049FEF72DFBDF
:10663000FEF75EFB574608B1854D07E0D8F84040AD
:10664000204600210025FCF70DF910B92C46C8F8AA
:10665000405098F8C40360B16E480024C466846654
:106660000466C465A9F84C4089F81240C8F8404057
:10667000846598F8EB0320B920460021FCF7F2F876
:1066800010B90024C8F840402046FCF749F93864A6
:10669000386840F0010038606FF00100386105B0E3
:1066A000BDE8F08F000C004000401C4600007A4618
:1066B000000048420000A0415D49FEF7E6FA0146AD
:1066C0003046FCF7CFF830B95A49FEF7DEFAFEF74C
:1066D0000FFB002866D00020A9F84C0089F81200B2
:1066E00058463146FCF71EF84A4F3866386EB96E88
:1066F000FBF7C6FFB866554DB86EFEF7FFF800B958
:10670000BD66B86E00210024FCF7ACF800B9BC6689
:10671000D7E91354386EF96DFCF704F87866204613
:106720003E6EB96EFCF704F8396F0490039104983B
:106730000399FCF76DF808B903980490049803993D
:1067400081F00041FCF780F818B9039880F0004010
:10675000049028463146FBF7EBFF0499FBF790FFC6
:106760000446796E0098FBF7E3FF2146FBF788FFAC
:10677000F866386EF865F86E796FFCF749F808B975
:10678000786FF866F86E796F81F00041FCF75CF87D
:1067900008B90020F866FC6E5746C8F840404FE73D
:1067A0000025CBE6B9F84C000130A9F84C0080B2C6
:1067B0003C2895D320490098FBF762FF164F04460A
:1067C0003946FCF74FF818B112480094446518E0B8
:1067D000104D286D6F65FCF7D0F8184A184BFBF781
:1067E000E3FC184B002204460F46FCF757F820B193
:1067F00020463946FCF7D4F800E0134828650648DF
:106800000090012089F812000020A9F84C0067E7E9
:10681000080100208801002000401C46FECF01082E
:10682000C4CF0108040E00200000C8420000C8C206
:106830000000A0400000A0C00000FAC49A999999F5
:106840009999B9BF000008400000404000C82F4798
:10685000007F3B472DE9F04102FB03F4069D002633
:106860004FEA4408DFF8BC44023D94F8D643012CBB
:1068700000F08B80002C40F028827F2D00F22582D2
:10688000DFE815F080004001320176012302840127
:1068900023028C0123029C012302B4012302800104
:1068A00023029001230292012302AE0123029401EC
:1068B00023027801230274012302B6012302AA01F4
:1068C00023027A012302960123029E0123027C0106
:1068D0002302A201230234013601A0012302C001D8
:1068E0002302B0012302B8012302A4012302A6015E
:1068F000230286012302AC0123025C012A01440128
:106900006E012302B2012302BA0123028E01230287
:1069100026012C013801520112012401BC0123027D
:106920002302A80170012302820123022801180119
:1069300060015E011C0158019801230272012302CB
:10694000C20123026A012302640166015A01460161
:106950004201300148012001880123022302C401C1
:1069600054016C0123024A010E017E0123024C01F5
:10697000160168010A013C011A01230223021001D9
:106980004E019A014FF496269FE17F2D00F29D81E2
:10699000DFE815F08000B800AA0064019B016601E1
:1069A0009B0156019B0168019B016A019B017E01CD
:1069B0009B016C019B014A019B0158019B015A01FB
:1069C0009B014C019B016E019B0170019B018001A9
:1069D0009B0182019B014E019B015C019B01840193
:1069E0009B0150019B01AC00AE0072019B01520162
:1069F0009B018C019B018E019B015E019B0160014B
:106A00009B0174019B0162019B01D400A200BC00A8
:106A100090019B0146019B0176019B0148019B016E
:106A20009E00A400B000CA008A009C0078019B016F
:106A30009B017A0192019B017C019B01A0009000C7
:106A4000D800D6009400D00086019B0144019B0130
:106A500088019B018A019B01DC00DE00D200BE00A0
:106A6000BA00A800C000980094019B019B01960108
:106A7000CC009A019B01C200860054019B01C40016
:106A80008E00E0008200B40092009B01400188006B
:106A9000C60042019F4E18E1A64C04F5487614E169
:106AA000A84E12E1A04E10E1BD4C04F59C660CE12D
:106AB000A14E0AE1B44C02E09D4E06E1B14C04F552
:106AC000196602E1A34C04F5E176FEE0B34EFCE06A
:106AD000B44EFAE0AC4EF8E0B84C22E0B14C04F50C
:106AE000BD66F2E09C4EF0E08B4EEEE0BD4EECE079
:106AF000BB4EEAE0AB4C04F53D66E6E08D4C04F598
:106B0000C866E2E0854EE0E0944EDEE0AA4EDCE0AE
:106B1000934EDAE08F4ED8E08B4ED6E0874ED4E02D
:106B2000814C04F5E146D0E09D4ECEE0884C04F562
:106B30005256CAE0924EC8E08A4EC6E09F4EC4E06C
:106B4000904EC2E0904C04F59956BEE0874EBCE0F2
:106B5000854EBAE0774EB8E0B94EB6E0B74EB4E035
:106B6000C14EB2E0BB4EB0E0B74EAEE0CE4EACE0B0
:106B70006B4EAAE0CD4EA8E0C84EA6E0C44EA4E0FD
:106B8000AD4EA2E0CE4EA0E0B14E9EE0D04E9CE0D5
:106B9000B74E9AE06F4C04F5617696E0CB4E94E0E8
:106BA000AE4E92E0C54E90E0C34E8EE0C04E8CE0FB
:106BB000B94E8AE0A54E88E0C64E86E0C24E84E01B
:106BC000B44E82E0B04E80E0B04E7EE0AA4E7CE053
:106BD000A84E7AE0A04E78E0B14E76E0A34E74E085
:106BE000B44E72E0A64E70E09E4E6EE0B54E6CE084
:106BF000AC4E6AE0A14E68E0994E66E0674C04F541
:106C0000527662E09F4E60E08E4E5EE0504C04F59E
:106C10000C565AE0454E58E0864E56E0564E54E02B
:106C2000634E52E0604E50E07A4E4EE0764E4CE0BD
:106C3000704E4AE06C4E48E0674E46E0404E44E0FD
:106C4000794E42E0724E40E0704E3EE0684E3CE0CD
:106C50005E4E3AE05C4E38E0594E36E0744E34E019
:106C6000724E32E06F4E30E06D4E2EE06A4E2CE0F8
:106C7000644E2AE0624E28E0584E26E0514E24E051
:106C80004A4E22E0444E20E0424E1EE03F4E1CE0C1
:106C9000624E1AE0594E18E0574E16E0534E14E07B
:106CA000364E12E0334E10E0314E0EE0494E0CE00D
:106CB000474E0AE03F4E08E0354E06E0244E04E021
:106CC000234C04F58C5600E0204E02440B44FDF7A3
:106CD000E7FF814D3146B8F1000F08BFBDE8F081F4
:106CE0004646B8F5806F28460F4628BF4FF48066A9
:106CF000324603F075FA0024B44206D2285B00BA8B
:106D0000000CFCF751FA0234F6E7A8EB0608F1197B
:106D1000E1E700BF0481B700002F0D0080EF0800FD
:106D2000806E1100CC1700206818BC0084C0BB0026
:106D3000104DB700ECEEB60064DDB600DCCBB6005B
:106D4000E897B600D25FB600A456B600F406B600C7
:106D5000E47AB500E065B5000043B5002020B50039
:106D600040FDB40060DAB40080B7B400A094B40071
:106D70009A7CB4008E4CB400A019B400D0E3B300E8
:106D80003CC0B30000AEB3005091B3005669B300ED
:106D90006219B30088B3B2009894B2006072B20076
:106DA000386AB2008859B2006E9CB1003A22B00035
:106DB00006A8AE000893AD00B237AD00C0C3AC006A
:106DC00050E7AA00CC6BA700A42DA4007CEFA00084
:106DD00054B19D002C739A0004359700DCF69300A3
:106DE0008802910048AD8F003EDB8D002A378A0073
:106DF0001693860002EF8200E47D7F00BC3F7C009A
:106E0000940179000023730000A46A000025620049
:106E100000A659000027510000A8480000294000A2
:106E200000AA3700002B2F0000AC2600002D1E000A
:106E300000AE15005815C300F463B60044B7B500A2
:106E40009464B4008834B400B8FEB300E8C8B3005A
:106E50005C41B30068F1B20078D2B20054DFB000F8
:106E60002065AF00ECEAAD00243BAD00E00AA900CC
:106E7000B8CCA500908EA20068509F0040129C00E4
:106E800018D49800F0959500C857920034098C00EA
:106E9000206588000CC18400F81C8100D0DE7D00D4
:106EA000A8A07A008062770080E36E0080646600AC
:106EB00080E55D008066550080E74C0080684400F6
:106EC00080E93B00806A330080EB2A00806C22005E
:106ED00080ED1900E838C10000020020BCB5154C57
:106EE0002068E06880060CD52068800609D56168B6
:106EF000114D05F12800C9B203F0FAF84FF4827081
:106F0000A886E068400610D5206840060DD50A4DD9
:106F10006FF040000DF10701206005F1380003F02B
:106F2000D4F818B1002085F84500BCBD9DF80700D5
:106F30006060BCBD0038014088010020FEE7000011
:106F40000648BFF34F8F064A016801F4E061114320
:106F50000160BFF34F8F00BFFDE700BF0CED00E005
:106F60000400FA0510B500EB40010A284FF00702B3
:106F7000084B28BF1E3902FA01F14FF00C0238BF4E
:106F80001022D4582143D150596B21F01F010843DE
:106F9000586310BD00240140014810210160704772
:106FA000141C01400148102101607047101C014071
:106FB00018B3F0B50844511ABE4A4B1C990802F5A3
:106FC000A2640D462DB150F8046B013D36BA40C4A1
:106FD000F8E713F003030ED0002418250026A3427F
:106FE00005D0075D0134AF40083D3E43F7E702EBB3
:106FF0008100C0F81065BDE8F0407047AD4901F56B
:10700000A262044918B108CA01380B60FAE708689F
:10701000704700BF0030024032490A68C2F3810362
:10702000314AF0B5DFE803F002380A380B6D9B05F2
:1070300032D5CB6A9B0148BF2D4A2DE00B688C6A84
:107040001B0C002C13D40C680D68C5F34175C4F3F8
:1070500083440DB90F2C43D12D0101352C44DB079E
:1070600002D00B689B0300D5204A624314E08C6A6F
:107070008D6A8E6ADB071D4BC4F30314C5F3082524
:1070800006F0070603D00F68BF0358BF134604FA83
:1070900006F26B43B3FBF2F2026016A40B68C3F373
:1070A0000313E35C174CDA4042600B68C3F302231E
:1070B000E35C22FA03F3C3600B68C3F3C223E35C0F
:1070C0000424DA4082600B68096804EA9363C1F320
:1070D000813119440CA3595CB2FBF1F10161F0BD9F
:1070E0000225BBE70410024000127A0000093D00AF
:1070F000006CDC020000000000000000010203043C
:1071000006070809BCCF010802040608020C081093
:107110007CB5044600204FF6FF75C6B2152E09D87F
:10712000301900F087FCADF80600B01CBDF8061061
:10713000A942F2D1BDF806007CBD00000B4A53689D
:10714000DB0103D4536843F08073536008230328A2
:1071500008BF102301FA03F06FF47F4108BF6FF4FA
:107160007F0113681940084310607047A000024077
:1071700002684BF6EF731A4002600A8903681A43EB
:1071800002604A7C036802F0030223F4405343EA9E
:1071900002320260CA7B036802F0030223F44063F8
:1071A00043EA822202608A7B036802F0030223F42E
:1071B000407343EA022202604A7B036802F0010244
:1071C00023F0800343EAC21202600A7B036862F381
:1071D000861303600A7C036862F3451303604A89DF
:1071E00042600A6882604968C1607047016821F0A6
:1071F000010101600021016041608160C16040F2D5
:10720000FF4100EA01020B49B2F5816F04D3D208B5
:10721000902A0ED801F5806100F0FC001422083895
:10722000B0FBF2F00F22800002FA00F00A6810436F
:107230000860704704000240064907480A7822B9EE
:107240004CF6CC42026001220A704AF6AA21016083
:10725000704700BF000E00200030004010B5154CF4
:1072600008480949FDF754FCFDF70FFCFDF76DFBDD
:107270001349FDF728FD84F823141620BDE81040BB
:1072800003F068BA01000A18D103030810B5094CCD
:1072900009480A49FDF73CFCFDF7F7FBFDF755FBF4
:1072A0000749FDF710FD84F823141620BDE81040AF
:1072B00003F050BAB40E002001000A1DD1030208E9
:1072C0000830024010B5214C226842F001022260D1
:1072D00001804FF4801000F017F8FDF7FDBA00BFF1
:1072E00008480168C9071CBF0020704701684907AA
:1072F00044BF012070470068C0064FF0020058BF2D
:10730000032070470C200240B0B50446FFF7E8FFA9
:107310000025013C45F1000118B911B1FFF7E0FF6C
:10732000F7E7B0BD10B5094C216841F002012160BA
:107330006060206840F0400020604FF08040FFF720
:10734000E3FF206820F00200206010BD1020024002
:107350002DE9F047DFF8709899F8EB0308B1BDE824
:10736000F087DFF8408998F801000328F7D8DFE8B4
:1073700000F002DD09B599F8E903002800F0FA8170
:107380000120F3E1664E98F80C10664FDFF844A632
:1073900006F1100011F0010508BF07F10E0099F881
:1073A000C613D04706F11200002D08BF07F11000E8
:1073B00099F8CD13D04706F11400002D08BF07F14E
:1073C000120099F8D013D04706F11600002D08BF1F
:1073D00007F1140099F8D613D04706F11804002DD0
:1073E00008BF07F11604D9F82800FBF780FA014618
:1073F0002046D04706F11A00002D08BF07F11800FB
:1074000099F8D313D04706F11C00002D08BF07F1EF
:107410001A0099F8D913D04706F11E00002D08BFB5
:1074200007F11C0099F8C913D04706F12000002D80
:1074300008BF07F11E0099F8E013D04706F12200BB
:10744000002D08BF07F1200099F8E213D04706F19C
:107450002400002D08BF07F1220099F8E413D0475B
:1074600006F12604002D08BF07F12404FDF73CFCBB
:1074700001462046D04799F8C60388F8020099F8DB
:10748000CD0388F8030099F8D00388F8040099F830
:10749000D60388F8050099F8D30388F8060099F810
:1074A000D90388F8070099F8C90388F8080099F803
:1074B000E00388F80900D9F82800FBF718FAA8F8C3
:1074C000460099F8E20388F80A0099F8E40388F87E
:1074D0000B00FDF709FCA8F8480044E1104898F8B3
:1074E0000C2010492830D20708BF01F12600B8F857
:1074F0004A10FFF7E7FE0C48C16841F08001C16007
:10750000012088F80100B8F84A000130A8F84A00C4
:1075100098F80C00013088F80C00BDE8F08700BF37
:1075200000F0010802F8010804200240B8F83E000B
:10753000FBF7D8F90146D9F81800FBF7A1F90028A4
:1075400000F08C80B8F84000FBF7CCF90146D9F880
:107550009800FBF795F9002800F08080B8F8420009
:10756000FBF7C0F90446D9F86800FDF70DFB0028C9
:1075700074D0B8F84400FBF7B5F90546D9F8800097
:10758000FDF705FB002869D0D9F86C00FDF7FCFA7F
:10759000002863D0D9F88400FDF7F9FA00285DD0FF
:1075A000D9F87000FDF7F0FA002857D0D9F8880014
:1075B000FDF7EDFA002851D099F8C60398F80210AB
:1075C00081424BD199F8CD0398F80310814245D1FF
:1075D00099F8D00398F8041081423FD199F8D60366
:1075E00098F80510814239D1B8F84600FBF77AF9CE
:1075F0000146D9F82800FBF743F978B399F8D3038B
:1076000098F80610814229D199F8D90398F8071003
:10761000814223D199F8C90398F8081081421DD1FD
:1076200099F8E00398F80910814217D199F8E2031C
:1076300098F80A10814211D199F8E40398F80B10D8
:1076400081420BD1B8F84800FBF74CF90146D9F854
:10765000BC00FBF715F900287FF481AEDC48DE4959
:107660000160DE490160D94998F80C000C468A4651
:1076700010F0010608BF04F500642046FFF752FE33
:10768000D9F81800FBF733F9D24FFDF7B9FA0AF130
:107690000204002E04BF4FF60204C0F60104D9F81C
:1076A0009800FBF724F9FDF7ABFA0AF10404C64D84
:1076B000002E08BFAC1CD9F86800FBF718F9FDF7DD
:1076C0009FFA0AF10604002E08BF2C1DD9F880008D
:1076D000FBF70DF9FDF794FA0AF10804002E08BF34
:1076E000AC1DD9F86C00FBF702F9FDF789FA0AF135
:1076F0000A04002E08BF05F10804D9F88400FBF73E
:10770000F6F8FDF77DFA0AF10C04002E08BF05F12A
:107710000A04D9F87000FBF7EAF8FDF771FA0AF1EC
:107720000E04002E08BF05F10C04D9F88800FBF701
:10773000DEF8FDF765FAD9F81800D9F87040D9F8E5
:107740008850D9F89860FBF7D2F8A8F83E00FDF70A
:10775000FCFAA8F84000FDF72CFAA8F84200FDF763
:1077600049FAA8F8440098F80100013088F80100AF
:10777000BDE8F087EA4C2046FFF7CAFC4FF6FF75DC
:10778000A84210D02046FFF7C3FCA8420BD004F15A
:10779000280000F04FF904468B48263000F04AF9E3
:1077A000844205D80DE02046FFF7B2FCA84202D083
:1077B00000F068F936E004F50060FFF7A9FCA84284
:1077C00002D000F0AFF92DE085488749884B874A01
:1077D000884C0025012689F8D65389F8D06389F8AA
:1077E000CD5389F8C65389F8D95389F8D363C9F8BA
:1077F000285089F8E46389F8E26389F8C953C9F825
:10780000BC007848C9F81810C9E92024C9E91A3120
:10781000C9F89800C9F888007748C9F870000220B4
:1078200089F8E003D9F818407449FDF79CF918B9B4
:107830006B49FDF7AFF910B96B48C9F81800D9F8D2
:1078400098406F49FDF78FF918B96E49FDF7A2F915
:1078500010B96448C9F89800D9F8BC406849FDF7E8
:1078600082F918B96749FDF795F910B95C48C9F86C
:10787000BC00D9F868406149FDF775F918B9584955
:10788000FDF788F910B95A48C9F86800D9F86C4072
:107890005A49FDF768F918B95149FDF77BF910B954
:1078A0005148C9F86C00D9F870405449FDF75BF9AC
:1078B00018B94B49FDF76EF910B94F48C9F8700077
:1078C000D9F880404E49FDF74EF918B94D49FDF7FA
:1078D00061F910B94548C9F88000D9F88440484991
:1078E000FDF741F918B94749FDF754F910B9414876
:1078F000C9F88400D9F888404149FDF734F918B92E
:107900004049FDF747F910B93648C9F8880099F899
:10791000C6033349022824BF002089F8C60399F81A
:10792000CD03022824BF002089F8CD0399F8D003A5
:10793000022824BF012089F8D00399F8D603022831
:1079400024BF002089F8D603D9F82840FDF70BF9A9
:1079500018B92D49FDF71EF910B90020C9F8280003
:1079600099F8D303022824BF002089F8D30399F89B
:10797000D90310B1002089F8D903FDF7A0F924BF7D
:10798000002089F8C90399F8E003043810F1030FC7
:107990009CBF022089F8E00399F8E203043810F153
:1079A000040F9CBF012089F8E20399F8E40304382E
:1079B00010F1040F9CBF012089F8E403012089F82D
:1079C000E903BDE8F08700BF02F8010800F00108F4
:1079D00004200240C572000823016745AB89EFCD42
:1079E0000000C842000020420000BE430000A04149
:1079F0000000AF430000F0410000C8430000FA431C
:107A0000000020430000A0400000C8C210B5074C91
:107A10000749206840F001002060A64801604FF44B
:107A20008010FFF771FCFCF757BF00BF1020024029
:107A3000384B544181B00168D0F801008DF8001036
:107A40008DF801009DF801009DF8001041EA00202A
:107A5000ADF80200BDF8020001B0704710B5084C47
:107A60006FF002012160FFF77DFAA06840F480000A
:107A7000A06020688007FCD5E06C80B210BD00BF1C
:107A80000024014070B5264C4E4D2046A847FAF719
:107A900029FF4D4EB061A01CA847FAF723FFC6F896
:107AA0009800201DA847FAF71DFFB066A01DA84743
:107AB000FAF718FFFDF7AEF9FAF714FFF06604F1D4
:107AC0000A00A847FAF70EFFFDF79FF9FAF70AFF39
:107AD000306704F10E00A847FAF704FFFDF790F9AC
